0000000000017HORTELA MACO     0000003.99
0000000000031ACELGA UN        0000006.99
0000000000048COUVE MANTEIGA MA0000004.89
0000000000062NABO BRANCO      0000007.99
0000000000123ABACAXI HAVAI UN 0000009.99
0000000000147ALHO PORO UN     0000005.49
0000000000161COCO VERDE UN    0000005.79
0000000000314REPOLHO ROXO UN  0000007.99
0000000000321AGRIAO MACO      0000002.99
0000000000352ALFACE AMER.UN   0000004.69
0000000000369ALFACE CRESPA UN 0000003.59
0000000000376ALFACE LISA UN   0000003.49
0000000000383ALMEIRAO MACO    0000004.49
0000000000390BETERRABA MACO   0000005.99
0000000000413BROCOLIS MACO UN 0000006.49
0000000000437ALFACE ROXA UN.  0000003.49
0000000000451CHEIRO VERDE MACO0000003.49
0000000000499COUVE FLOR UN    0000009.49
0000000000635RABANETE UN      0000004.99
0000000000659REPOLHO VERDE UN 0000007.49
0000000000666RUCULA MACO      0000003.79
0000000000673SALSAO MACO      0000012.99
0000000000703CHICORIA         0000004.49
0000000000727MAMAO HAVAI/PAPAY0000003.77
0000000000918FIGO ROXO BDJA   0000028.99
0000000000994QUEIJO VERDE CAMP0000069.99
0000000001021SALAME SADIA ITAL0000089.90
0000000001045MAIONESE KG      0000036.90
0000000001052SALPICAO DE FRANG0000069.90
0000000001069CHESTER PERDIGAO 0000007.99
0000000001113SALADA MISTA KG  0000039.90
0000000001144ARROZ SIMPLES KG 0000032.90
0000000001168TORTA M.FLORA DE 0000069.90
0000000001274CARNE BOVINA AO M0000062.90
0000000001281GROSTOLI KG      0000042.90
0000000001304FARINHA DE ROSCA 0000018.90
0000000001311SALADA DE FRUTAS 0000042.90
0000000001328BIFE BOVINO A MIL0000072.90
0000000001366BATATA FRITA KG  0000032.90
0000000001373DOBRADINHA KG    0000052.90
0000000001410FRANGO ASSADO 9000000039.90
0000000001441COSTELA BOVINA AS0000066.90
0000000001465LINGUICA TOSCANA 0000049.90
0000000001472LASANHA BOLONHESA0000041.90
0000000001496MACARRAO AO SUGO 0000026.90
0000000001502NHOQUE DE BATATA 0000039.90
0000000001526PANQUECA DE CARNE0000046.90
0000000001557PEITO FRANGO A MI0000069.90
0000000001595BANANA CATURRA KG0000001.77
0000000001601BIFE BOVINO A PAR0000079.90
0000000001625FAROFA CALAB/BACO0000059.90
0000000001670UVA BENETAKA A GR0000017.90
0000000001694ABOBORA ITALIA KG0000006.79
0000000001700AIPIM/MANDIOCA KG0000003.99
0000000001762ALMONDEGA AO SUGO0000068.90
0000000001779AIPIM FRITO KG   0000039.90
0000000001793BISTECA DE PORCO 0000051.90
0000000001830BIFE BOVINO ACEBO0000079.89
0000000001922SALSICHA PERDIGAO0000087.90
0000000001960PEIXE SALGADO ZAR0000089.90
0000000002011FEIJAO PRETO KG  0000026.90
0000000002028POLENTA FRITA KG 0000042.90
0000000002073COXA ASSADA KG   0000039.90
0000000002165FEIJAO CARIOCA KG0000020.75
0000000002202QUEIJO MONTE FUJI0000059.90
0000000002226FRANGO PASSARINHO0000049.90
0000000002233PEIXE A MILANESA 0000043.38
0000000002240ARROZ A GREGA KG 0000037.90
0000000002257ARROZ CARRETEIRO 0000046.90
0000000002349CHESTER ASSADO KG0000123.28
0000000002417PERNIL SUINO ASSA0000068.90
0000000002448ARROZ A PRIMAVERA0000035.90
0000000002523BIFE BOVINO A ROL0000063.90
0000000002592MIOLO ALCATRA BOV0000046.97
0000000002646FEIJOADA KG      0000049.90
0000000002837SOB.SAGU C/VINHO 0000039.90
0000000002844SOB.CANJICA KG   0000022.85
0000000002851SOB.ARROZ DOCE KG0000032.90
0000000002875UVA RUBI A GRANEL0000017.90
0000000002882SALAMINHO FRIMESA0000088.90
0000000002943SANDUICHE NATURAL0000048.90
0000000002967CAQUI FUYU KG    0000015.99
0000000003001STROGONOFF DE CAR0000079.90
0000000003087MELAO SAPO KG    0000007.99
0000000003117PEITO FRANGO GREL0000072.90
0000000003148LOMBO ASSADO KG  0000042.90
0000000003247LARANJA PERA KG  0000003.77
0000000003285POKAN KG         0000009.99
0000000003308ALCATRA C/MAMINHA0000044.97
0000000003315CAQUI CAFE KG    0000015.99
0000000003339LINGUICA JULIATTO0000036.90
0000000003346PAO SIRIO KG     0000021.90
0000000003360BATATA BRANCA LAV0000001.75
0000000003421CEBOLA KG        0000002.47
0000000003469QUEIJO TIROLEZ MI0000089.90
0000000003568BERINJELA KG     0000006.99
0000000003773MUSCULO BOVINO CO0000024.98
0000000003834QUEIJO FRIMESA PR0000116.90
0000000003957PAO DE BANHA KG  0000037.65
0000000003971BRIOCHE COCO KG  0000039.90
0000000004015BOMBA DE CHOCOLAT0000049.90
0000000004022SONHO C/NATA KG  0000029.90
0000000004176BIFE BOVINO DE AL0000049.90
0000000004275MELAO ORANGE KG  0000018.99
0000000004466QUEIJO TIROLEZ MI0000052.90
0000000004497QUEIJO TIROLEZ PR0000153.75
0000000004503MELANCIA INTEIRA 0000003.99
0000000004589QUEIJO LITORAL MU0000035.90
0000000004893BACON SEARA MANTA0000034.99
0000000004916BACON PERDIGAO MA0000032.99
0000000004923PE SUINO FRIMESA 0000024.99
0000000004947COSTELA SUINA FRI0000031.90
0000000004985RABO SUINO FRIMES0000029.69
0000000004992ORELHA SUINA FRIM0000029.89
0000000005012LINGUICA FRIMESA 0000024.99
0000000005036LINGUICA SEARA CA0000024.49
0000000005203BACON SADIA MANTA0000044.28
0000000005241APRESUNTADO FRIME0000021.19
0000000005449SALSICHAO JULIATT0000026.89
0000000005739BACALHAU PORTO GA0000129.97
0000000005807SALSICHA JULIATTO0000033.99
0000000005913COSTELA SUINA JUL0000065.89
0000000006071BACON ALEGRA MANT0000037.49
0000000006125SALSINHA MACO    0000003.49
0000000006187PIZZA CONDOR SALA0000056.99
0000000006200PIZZA CONDOR MUSS0000048.90
0000000006224PIZZA CONDOR LOMB0000049.99
0000000006248PIZZA CONDOR PROV0000056.90
0000000006286BACON DE PALETA J0000045.90
0000000006309QUEIJO JULIATTO D0000045.48
0000000006354COENTRO MACO     0000005.49
0000000006750PAO DE CEBOLA KG 0000044.37
0000000006767PAO DE MILHO KG  0000026.90
0000000007030BACON JULIATTO CR0000041.90
0000000007115MAMAO FORMOSA KG 0000008.99
0000000007238QUEIJO CRIOULO MI0000078.90
0000000007375MINI SALAME PERDI0000085.90
0000000007719GENGIBRE KG      0000019.99
0000000007726PIZZA CONDOR PRES0000033.90
0000000007825PEPINO SALADA/CAI0000002.77
0000000008198QUEIJO TIROLEZ PA0000162.90
0000000008679ALCATRA C/MAMINHA0000036.97
0000000009447ACEM BOVINO CONDO0000024.98
0000000009515CARNE SETE BOVINO0000032.98
0000000009539PALETA BOVINA CON0000025.98
0000000009553PEITO BOVINO COND0000022.98
0000000009560COSTELA MINGA BOV0000021.98
0000000009874BISTECA SUINA CON0000016.97
0000000010252MIOLO DE ALCATRA 0000046.97
0000000010665LINGUICA BIZINELL0000041.98
0000000010795LINGUICA TONINI T0000034.98
0000000010825ALCATRA SUINA PAM0000034.49
0000000010887BABY BEEF BOVINO 0000041.90
0000000011020COSTELA SUINA PAM0000032.68
0000000011136FILE MIGNON SUINO0000031.95
0000000011433PICANHA SUINA PAM0000036.28
0000000011600CUBOS DE ACEM BOV0000051.90
0000000011976APRESUNTADO SEARA0000025.79
0000000012072PAO AUSTRALIANO K0000025.90
0000000012454BANANA OURO KG   0000013.49
0000000012669MARIA MOLE KG    0000049.90
0000000012751QUEIJO CRIOULO MI0000064.90
0000000012782QUEIJO PRATO CRIO0000076.90
0000000013031COXINHA DA ASA BI0000018.59
0000000013178BOLO BROWNIE TIRA0000036.90
0000000013291SONHO C/CHOCOLATE0000036.90
0000000013352PEITO FRANGO SEAR0000066.95
0000000013697COSTELA SUINA BIZ0000061.90
0000000013864SALAME SEARA GOUR0000089.90
0000000014076DONUT C/COBERTURA0000053.90
0000000014113SALAME PAMPLONA I0000069.90
0000000014120PERA IMP.WILLIANS0000012.79
0000000014199QUEIJO SANTA CLAR0000084.90
0000000014205QUEIJO SANTA CLAR0000072.90
0000000014717FRANGO MARINGA RE0000011.98
0000000014731PEITO FRANGO MARI0000016.99
0000000014748FILE DE PEITO MAR0000021.59
0000000014762COXA C/SCOXA MARI0000012.99
0000000014816ASA DE FRANGO MAR0000017.69
0000000015097TORTA M.FLORA DE 0000049.90
0000000015103PUDIM DE LEITE KG0000042.90
0000000015141TORTA M.FLORA DE 0000069.90
0000000015226SUSPIRO KG       0000059.90
0000000015295BOMBA DE CREME KG0000049.90
0000000015301TORTA M.FLORA DE 0000059.90
0000000015325BISC.DE POLVILHO 0000059.90
0000000015363BISC.DE COCO KG  0000052.90
0000000015516BOLO CONDOR RECH.0000064.90
0000000015547CHINECK DE BANANA0000029.90
0000000015554CUCA DE BANANA KG0000029.90
0000000015561CUCA DE COCO KG  0000042.90
0000000015592MASSA P/PIZZA KG 0000019.90
0000000015608BISC.JOELHINHO KG0000014.57
0000000015615PAO DOCE C/COCO K0000029.90
0000000015639CHINECK DE FAROFA0000029.90
0000000015646CHINECK DE COCO K0000029.90
0000000015677PAO DE MINUTO KG 0000032.90
0000000015691PAO SOVADO KG    0000022.90
0000000015707TORRADA SALGADA K0000018.90
0000000015714CUCA DE FAROFA KG0000042.90
0000000015721CUCA COLONIAL KG 0000042.90
0000000015745PAO DE FRIOS KG  0000045.90
0000000015752CHINECK DE CREME 0000029.90
0000000015769PAO DOCE C/CREME 0000032.90
0000000015783PAO DA NONNA HOT 0000005.19
0000000015790PAO BAGUETE KG   0000014.89
0000000015820PAO CASEIRO KG   0000022.90
0000000015837PAO 37% INTEG.KG 0000022.90
0000000015882AMEIXA VERMELHA N0000014.99
0000000015899AMEIXA VERMELHA I0000026.99
0000000015905BANANA MACA KG   0000014.99
0000000015912BANANA PRATA KG  0000006.99
0000000015929COCO SECO KG     0000009.98
0000000015943LIMA PERSIA KG   0000016.99
0000000015950LIMAO TAHITI KG  0000002.77
0000000015974MACA GOLDEN KG   0000016.99
0000000015981MACA GALA VERMELH0000012.99
0000000015998MACA FUJI VERMELH0000013.99
0000000016001MACA IMP.BRANCA K0000015.99
0000000016025MANGA TOMMY KG   0000009.89
0000000016032MARACUJA SUCO KG 0000012.99
0000000016056NECTARINA IMP.KG 0000029.90
0000000016070PERA NAC.KG      0000005.99
0000000016087PESSEGO NAC.KG   0000010.99
0000000016094PESSEGO IMP.KG   0000029.90
0000000016124UVA ITALIA A GRAN0000017.90
0000000016216ABOBORA MORANGA K0000002.49
0000000016223ABOBORA KABOTIA K0000002.49
0000000016230ABOBRINHA VERDE K0000003.49
0000000016247ABOBRINHA BRANCA 0000003.99
0000000016254INHAME/TAIA KG   0000013.99
0000000016278CARA KG          0000012.99
0000000016308BATATA DOCE ROXA 0000001.75
0000000016315BETERRABA KG     0000001.97
0000000016346CENOURA KG       0000003.97
0000000016353CHUCHU KG        0000002.97
0000000016407PEPINO JAPONES KG0000004.99
0000000016445PIMENTAO AMARELO 0000016.98
0000000016452PIMENTAO VERMELHO0000016.98
0000000016506TOMATE KG        0000010.49
0000000016575MINI SALAME SADIA0000089.90
0000000016582SALAMINHO SADIA K0000095.90
0000000016643QUEIJO LITORAL MU0000038.90
0000000016711TENDER SUINO SADI0000083.90
0000000016728TENDER SUINO SEAR0000069.90
0000000016742TENDER SUINO PERD0000074.90
0000000017077QUINDIM KG       0000069.90
0000000017084QUEIJO FRIMESA MU0000065.90
0000000017114ABOBORA MENINA SE0000001.99
0000000017206QUEIJO PRATO FRIM0000067.90
0000000017282FRANGO COPACOL RE0000015.99
0000000017336MELAO ESPANHOL KG0000007.99
0000000017411GOIABA VERMELHA K0000006.99
0000000017480KIWI NAC.KG      0000015.99
0000000017527FRANGO PERDIGAO D0000069.15
0000000017534TENDER SUINO FRIM0000049.90
0000000017596PAO DE BATATA KG 0000026.90
0000000017626PAO CIABATTA KG  0000023.90
0000000017671PIZZA CONDOR CALA0000044.90
0000000017718PAO BISNAGUINHA K0000009.77
0000000017725PAO PORTUGUES KG 0000026.90
0000000018319SALAME FRIMESA IT0000088.90
0000000018326SALAME FRIMESA MI0000088.90
0000000019033PAO VITAMINADO KG0000029.90
0000000019460QUEIJO FRIMESA PA0000152.90
0000000019569TANGERINA KG     0000014.99
0000000019590ATEMOIA KG       0000023.59
0000000019606BANANA TERRA KG  0000014.89
0000000019613MELAO AMARELO C/R0000014.99
0000000019705RICOTA TIROLEZ KG0000041.90
0000000020121PAO ITALIANO BOLA0000026.90
0000000020138PAO ITALIANO FILA0000026.90
0000000020183PAO PETROPOLIS KG0000021.90
0000000020213PAO DE PASCOA FTA0000046.90
0000000020244PAO DE PASCOA CHO0000046.90
0000000020251TORRADA DOCE KG  0000019.90
0000000020282BRIOCHE CHOC.KG  0000039.90
0000000020299BRIOCHE TRANCA KG0000036.90
0000000020428STRUDELL DE MACA 0000086.67
0000000020459TORTA ALEMA KG   0000059.90
0000000020510BOLO NESTLE CARAM0000064.90
0000000020602BRIGADEIRO KG    0000049.90
0000000020619SONHO C/GOIABADA 0000036.90
0000000020626MARIA MOLE COCO Q0000069.90
0000000020671BEIJINHO KG      0000089.90
0000000020701SONHO C/DOCE DE L0000036.90
0000000020718SONHO C/CREME KG 0000039.90
0000000020725BROA AEROSA KG   0000032.90
0000000020732COXINHA DA ASA CO0000017.79
0000000020749MEIO DA ASA COPAC0000031.99
0000000021296MELAO CANTALOUPE 0000015.99
0000000021319QUEIJO PRATO SANT0000077.75
0000000021326QUEIJO SANTA CLAR0000056.25
0000000021333QUEIJO SANTA CLAR0000056.25
0000000021340QUEIJO PRATO SANT0000066.90
0000000021548RICOTA MONTE FUJI0000038.99
0000000021579QUEIJO MONTE FUJI0000069.90
0000000021975SANDUICHE BAGUETE0000049.90
0000000022040SALAMINHO ALEGRA 0000076.90
0000000022095LINGUICA FRITA KG0000046.90
0000000022149COSTELA SUINA ASS0000074.90
0000000022163MACARRAO ALHO/OLE0000026.90
0000000022187MACARRAO A BOLONH0000036.90
0000000022651PAO DE MILHO KG  0000026.90
0000000022712COPA ALEGRA KG   0000128.90
0000000023160BIFE BOVINO DE PA0000048.90
0000000024211LINGUICA SUINA SU0000027.98
0000000024563BIFE BOVINO POSTA0000048.99
0000000024914BACON ALEGRA CRY 0000037.99
0000000024990PATINHO BOVINO PE0000037.90
0000000025249LOMBO SUINO AUROR0000055.90
0000000025317COXA C/SCOXA C/DO0000006.97
0000000025324FILE DE PEITO CON0000019.79
0000000025348ASA DE FRANGO CON0000015.99
0000000025355PEITO FRANGO C/O 0000014.99
0000000025362COSTELA MINGA BOV0000021.99
0000000025690POSTA VERMELHA BO0000039.97
0000000025706PAO FRANCES DA NO0000013.49
0000000025737MAMINHA BOVINA PE0000042.97
0000000025829COXAO MOLE BOVINO0000035.97
0000000025881LOMBO SUINO AUROR0000043.90
0000000026338PAO DE MANDIOCA K0000026.90
0000000026673CONTRA FILE BOVIN0000049.90
0000000026680BIFE BOVINO DE CO0000047.90
0000000026772BIFE BOVINO CONTR0000046.99
0000000026796CONTRA FILE BOVIN0000036.97
0000000027120PIZZA CONDOR MILH0000031.98
0000000027380FILE DE PEITO COP0000022.79
0000000027434COXA C/SCOXA COPA0000011.99
0000000027960COSTELA MINGA BOV0000028.99
0000000027984CAPA DO COXAO MOL0000041.90
0000000027991CAPA DO CONTRA FI0000035.99
0000000028202CHIPA F.P.TRAD.KG0000059.90
0000000028561LINGUICA AURORA P0000022.59
0000000028745PAO LEVE PTO KG  0000058.69
0000000028752PAO ESPECIAL CASE0000019.90
0000000028905ALHO A GRANEL    0000024.90
0000000029001MANGA PALMER KG  0000004.99
0000000029285LUA DE MEL KG    0000048.90
0000000029513QUEIJO SANBIOS MI0000056.90
0000000030564QUEIJO SANTA CLAR0000114.90
0000000030601QUEIJO SANTA CLAR0000142.85
0000000030991TOMATE ITALIANO K0000011.89
0000000031653QUEIJO TIROLEZ RE0000145.90
0000000031677COSTELA SUINA FRI0000059.90
0000000031714FRALDINHA BOVINA 0000039.97
0000000031875LINGUICA CHURRASC0000015.89
0000000032278QUEIJO SANTA CLAR0000114.90
0000000032285QUEIJO SANTA CLAR0000106.90
0000000032452CRACOVIA JULIATTO0000055.90
0000000032469LINGUICA JULIATTO0000026.89
0000000032483TILAPIA COPACOL E0000021.90
0000000032810CUCA DE GOIABADA 0000042.90
0000000033008CUCA DE UVA KG   0000042.90
0000000033077BOLO TOALHA FELPU0000036.90
0000000033268TORTA DE BANANA C0000032.90
0000000033381LINGUICA NUZDA FI0000038.99
0000000033459PAO FRANCES 37% I0000019.90
0000000033473RICOTA SANTA CLAR0000054.39
0000000033497RICOTA SANTA CLAR0000054.39
0000000033831BOLINHO DE CHUVA 0000042.90
0000000034319PE DE FRANGO MARI0000007.99
0000000034524LINGUICA PERDIGAO0000033.99
0000000034579LIMAO SICILIANO I0000014.99
0000000034791QUEIJO VIDATIVA P0000091.90
0000000034821QUEIJO FRIMESA MU0000063.90
0000000034838QUEIJO COALHO FRI0000085.90
0000000034913BOLO DE MILHO CRE0000036.90
0000000034944BOLO DE CENOURA C0000029.90
0000000034951RICOTA VIDATIVA T0000033.90
0000000035019QUEIJO COALHO VID0000076.90
0000000035026CEBOLA ROXA KG   0000006.79
0000000035064BOLO DE AIPIM CRE0000036.90
0000000035163QUEIJO COALHO VID0000076.90
0000000035194QUEIJO VIDATIVA M0000051.90
0000000035200QUEIJO VIDATIVA M0000063.90
0000000035385FRANGO CONG.KG   0000011.49
0000000035545CROISSANT DE CHOC0000046.90
0000000035552CROISSANT DE PRES0000046.90
0000000035576CROISSANT DE QUEI0000046.90
0000000035705CRACOVIA NUZDA KG0000058.55
0000000035743LINGUICA NUZDA DE0000032.99
0000000035774SALAME NUZDA ROSA0000042.58
0000000035781SALSICHAO NUZDA P0000024.65
0000000035934CONTRA FILE BOVIN0000054.90
0000000035958LINGUICA SUINA AU0000024.69
0000000036054COSTELA SUINA FRI0000032.99
0000000036146MORTADELA SEARA G0000030.95
0000000036214QUEIJO AURORA MUS0000074.57
0000000036238COSTELA RIPA BOVI0000026.59
0000000036245SALAME SADIA HAMB0000110.09
0000000036603PRATO PRONTO KG  0000059.90
0000000036856PATINHO BOVINO PE0000040.97
0000000036863SANDUICHE NATURAL0000048.90
0000000036887SANDUICHE NATURAL0000048.90
0000000036894SANDUICHE NATURAL0000048.90
0000000037068CARNE BOVINA REFE0000002.48
0000000037105CARNE FRANGO REFE0000002.48
0000000037136LINGUICA REFEITOR0000001.83
0000000037211MELAO DINO KG    0000011.69
0000000037815QUEIJO FRIMESA MI0000069.90
0000000037976LINGUICA BIZINELL0000034.29
0000000037983LOMBO SUINO BIZIN0000059.99
0000000038003INGREDIENTES P/FE0000054.90
0000000038027LINGUICA BIZINELL0000028.99
0000000038171QUEIJO WITMARSUM 0000149.75
0000000038225PANCETA SUINA FRI0000033.79
0000000038447QUEIJO WITMARSUM 0000065.95
0000000038461COXA C/SCOXA CONG0000008.99
0000000038478QUEIJO WITMARSUM 0000065.08
0000000038485RICOTA WITMARSUM 0000031.79
0000000038553QUEIJO SANTA CLAR0000105.90
0000000038560QUEIJO WITMARSUM 0000149.79
0000000038621QUEIJO LACFEE ZER0000053.90
0000000038638COPA FRIMESA PECA0000114.90
0000000038843PIZZA ASSADA CALA0000052.90
0000000038867COXA SEARA RESF.K0000016.19
0000000038928PICANHA BOVINA CO0000059.90
0000000038980SOBRECOXA SEARA R0000018.45
0000000039246QUEIJO PRATO TIRO0000052.90
0000000039253QUEIJO TIROL MUSS0000052.90
0000000039307PEITO DE PERU SEA0000007.99
0000000039475COXINHA DA ASA SE0000018.59
0000000039598PEITO FRANGO SEAR0000016.99
0000000039635LINGUICA TONINI E0000034.98
0000000039666LINGUICA TONINI T0000034.98
0000000039710FILE DE PEITO SEA0000024.90
0000000039727LINGUICA FRIMESA 0000019.90
0000000040457ORELHA SUINA AURO0000029.79
0000000040464PE SUINO AURORA S0000023.89
0000000040471RABO SUINO AURORA0000030.99
0000000040563COSTELA SUINA AUR0000033.89
0000000040594RICOTA VIDATIVA T0000033.90
0000000040624QUEIJO VIDATIVA G0000107.90
0000000040631MORTADELA COPACOL0000025.79
0000000041195QUEIJO SANTA CLAR0000079.90
0000000041218PAO SEMI ITALIANO0000028.90
0000000041287PANETTONE NESTLE 0000107.19
0000000041362PAO DE QUEIJO CYM0000042.90
0000000041447PERNIL SUINO ALEG0000029.90
0000000041539QUEIJO TIROLEZ AZ0000135.90
0000000041782BISCOITO DECORADO0000101.08
0000000041812PICANHA SUINA ALE0000029.99
0000000041867SOBREPALETA SUINA0000026.99
0000000041881FILE MIGNON SUINO0000032.89
0000000041911LOMBO SUINO ALEGR0000032.28
0000000042116PAO CIABATTA EMUL0000023.90
0000000042154PAO SEMI ITALIANO0000026.90
0000000042192COXAO MOLE BOVINO0000035.97
0000000042208PEITO DE PERU SEA0000063.48
0000000042222COSTELA MINGA BOV0000036.09
0000000042277BIFE BOVINO PARIS0000058.90
0000000042291BIFE BOVINO DE MA0000065.89
0000000042321PAO DE QUEIJO DA 0000039.90
0000000042475COXINHA DA ASA MA0000016.79
0000000042567PAO AUSTRALIANO K0000026.90
0000000042574PAO DE AGUA KG   0000014.98
0000000042758ACEM BOVINO S/O P0000031.90
0000000042994PE SUINO RESF.KG 0000009.97
0000000043038FILE MIGNON BOVIN0000079.90
0000000043137MANGA ESPADA KG  0000024.99
0000000043144PEIXE SALGADO POL0000053.90
0000000043281COSTELA SUINA ALE0000029.90
0000000043663SOBREPALETA SUINA0000031.19
0000000043687PANCETA SUINA PAM0000033.38
0000000043755QUEIJO SANTA CLAR0000132.25
0000000043762QUEIJO SANTA CLAR0000173.25
0000000043779QUEIJO SANTA CLAR0000173.25
0000000043885TORTINHA M.FLORA 0000069.90
0000000044028FILE DE PEITO BIG0000024.90
0000000044073TORTA DE ABACAXI 0000032.90
0000000044103PIZZA ASSADA MILH0000052.90
0000000044110PIZZA ASSADA MUSS0000052.90
0000000044127PIZZA ASSADA PRES0000052.90
0000000044158PASTEL DE PRESUNT0000042.90
0000000044165PASTEL DE QUEIJO 0000042.90
0000000044172PASTEL DE CARNE K0000042.90
0000000044196PASTEL DE FRANGO 0000023.25
0000000044295FILE DE PESCADA E0000073.95
0000000044455PAO DE MINUTO C/G0000032.90
0000000044554GROSTOLI KG      0000042.90
0000000044608BROA DE MILHO KG 0000029.90
0000000044745DRUMETTE BIG FGO 0000019.99
0000000044967FRANGO SADIA ASSA0000017.99
0000000045025DONUT C/COBERTURA0000049.90
0000000045049MIL FOLHAS DE CRE0000072.90
0000000045179MASSA P/PIZZA IAR0000052.45
0000000045346BATATA ASTERIX KG0000006.99
0000000045650QUEIJO LACFREE MI0000077.90
0000000045698PITAYA KG        0000018.90
0000000045766FOLHADO DE PRESUN0000034.15
0000000045964TORTA CONDOR RED 0000059.90
0000000046060TENDER SUINO SEAR0000074.90
0000000046282PEITO BOVINO S/O 0000032.97
0000000046527CARNE MOIDA BOVIN0000041.98
0000000046695CARNE MOIDA BOVIN0000029.98
0000000046930MUSCULO BOVINO S/0000033.97
0000000047111MUSCULO BOVINO FA0000046.99
0000000047272PICANHA BOVINA B 0000072.90
0000000047647PAO DE QUEIJO RIZ0000046.90
0000000047692TIRAS DE COXAO MO0000049.90
0000000047739SALGADINHOS RIZOL0000046.90
0000000047852PIMENTAO VERDE KG0000012.99
0000000048064POSTA VERMELHA BO0000039.97
0000000048118BIFE BOVINO LIGHT0000056.99
0000000048194BIFE BOVINO POSTA0000051.90
0000000048224CROISSANT DE GOIA0000046.90
0000000048231CROISSANT DE FRAN0000046.90
0000000048354POSTA BRANCA PEDA0000039.97
0000000048521QUEIJO SANTA CLAR0000048.90
0000000048576COSTELA SUINA ALE0000024.69
0000000048897LINGUICA SUINA AL0000017.58
0000000048965BISTECA SUINA FRI0000024.99
0000000048972ALCATRA SUINA FRI0000036.28
0000000049146PE SUINO PAMPLONA0000021.49
0000000049177COSTELA PAMPLONA 0000021.25
0000000049184RABO SUINO PAMPLO0000027.09
0000000049740QUEIJO VERDE CAMP0000075.90
0000000049757QUEIJO LACFREE MU0000072.65
0000000049849BIFE BOVINO PALHA0000058.90
0000000049870POSTA BRANCA BOVI0000039.97
0000000050036FOOD SERVICE MORT0000013.99
0000000050135COSTELA SUINA SUL0000033.99
0000000050180PICANHA BOVINA FA0000061.90
0000000050227PAO AMIGO KG     0000029.90
0000000050241TENDER SUINO SADI0000095.25
0000000050487ESPETINHO DE FRAN0000010.49
0000000050715PANETTONE NESTLE 0000095.05
0000000050777BISTECA SUINA SEA0000020.49
0000000050869PAO FRANCES C/GER0000016.98
0000000050876FOOD SERVICE APRE0000012.69
0000000050883FOOD SERVICE PRES0000021.49
0000000050890FOOD SERVICE QUEI0000025.99
0000000050913FOOD SERVICE QUEI0000028.89
0000000050975QUEIJO COALHO PRE0000085.90
0000000050982QUEIJO PRESIDENT 0000089.90
0000000051002CAQUI IMPORTADO K0000054.90
0000000051088PAO DOCE COCO KG 0000032.90
0000000051095BRIOCHE NINHO KG 0000039.90
0000000051149LUA DE MEL CREME 0000049.90
0000000051156LUA DE MEL DOCE D0000049.90
0000000051163PAO DE FRIOS KG  0000042.90
0000000051194PAO DOCE LISO KG 0000032.90
0000000051200SOPA DE ABOBORA C0000039.90
0000000051217SOPA CANJA KG    0000042.90
0000000051224SOPA CALDO VERDE 0000039.90
0000000051231SOPA SLAVA KG    0000034.18
0000000051255SOPA BATATA SALSA0000025.38
0000000051279SANDUICHE PERNIL 0000044.90
0000000051293CACHORRO QUENTE K0000048.90
0000000051590CONTRA FILE BOVIN0000036.97
0000000051750FILEZINHO SASSAMI0000017.97
0000000051767OVO DE COLHER KIT0000049.90
0000000051774OVO DE COLHER NIN0000049.90
0000000051781OVO DE COLHER GAL0000049.90
0000000051798OVO DE COLHER BRI0000049.90
0000000051828BOLO NESTLE ESP.N0000064.90
0000000051866COSTELA BOVINA GA0000032.79
0000000052122MACA DO AMOR CHOC0000021.49
0000000052191TORTA CONDOR CHEE0000069.90
0000000052214COSTELA MINGA BOV0000021.98
0000000052450ASSADO DE TIRAS B0000059.79
0000000052467CHULETA BOVINA MA0000059.79
0000000052481FOLHADO FORNO DE 0000062.90
0000000052498FOLHADO FORNO DE 0000062.90
0000000052511FOLHADO FORNO DE 0000062.90
0000000052528FOLHADO FORNO DE 0000062.90
0000000052542FATIA HUNGARA CHO0000046.90
0000000052559FATIA HUNGARA COC0000046.90
0000000052689MATAMBRITO SUINO 0000031.99
0000000052726PANCETA SUINA SUL0000037.49
0000000052733COSTELA SUINA SUL0000036.59
0000000052740PICANHA SUINA SUL0000036.99
0000000052764LOMBO SUINO SULIT0000033.49
0000000052900PAO DE QUEIJO RIZ0000048.90
0000000052924DOCINHOS DIVERSOS0000069.90
0000000052962QUICHE RIZOLLI BR0000009.99
0000000052979QUICHE RIZOLLI FR0000009.99
0000000053020QUICHE RIZOLLI BA0000009.99
0000000053273CUCA DE BANANA KG0000029.90
0000000053303CUCA DE FTAS VERM0000042.90
0000000053310CUCA DE DOCE DE L0000042.90
0000000053433QUEIJO FRIMESA MI0000054.90
0000000053518PAO CIABATTA C/CA0000023.90
0000000053990BISC.SAMANTA KG  0000049.90
0000000054171PICANHA SUINA TEM0000034.49
0000000054188FILE MIGNON SUINO0000030.99
0000000054294PERNIL SUINO TEMP0000022.90
0000000054300SOBREPALETA SUINA0000033.99
0000000054317LOMBO SUINO TEMP.0000033.99
0000000054324COSTELA SUINA GRI0000036.19
0000000054331PANCETA SUINA TEM0000038.79
0000000054461AVE COPACOL NAVID0000007.99
0000000054522QUEIJO CRUZILIA G0000103.90
0000000054539COCADA KG        0000052.90
0000000054553PAO RUSTICO CAFE 0000028.90
0000000054607MINI PAO FRANCES 0000013.98
0000000054614BACON DE PALETA S0000034.85
0000000054621FLAUTA DOCE CHOC.0000004.99
0000000054751PAO RUSTICO AVEIA0000028.90
0000000054775FIGADO DE FRANGO 0000011.47
0000000054782FILEZINHO SEARA R0000018.59
0000000054812CUPCAKE FTAS VERM0000039.90
0000000054829CUPCAKE CREME KG 0000039.90
0000000054836CUPCAKE CHOC.KG  0000039.90
0000000054928FOCACCIA KG      0000045.90
0000000055000PERNIL SUINO SADI0000033.99
0000000055031PALETA SUINA TEMP0000023.49
0000000055048FRANGO PASSARINHO0000012.69
0000000055055CORACAO DE FRANGO0000015.65
0000000055062COXINHA DA ASA TE0000012.98
0000000055079FILE DE PEITO TEM0000023.99
0000000055130QUEIJO PRESIDENT 0000068.90
0000000055383QUEIJO COALHO SAN0000087.90
0000000055406MUSCULO BOVINO C/0000030.69
0000000055413PEITO BOVINO C/O 0000023.89
0000000055420CARNE SETE C/O RE0000034.79
0000000055437ACEM BOVINO C/O R0000030.69
0000000055451QUEIJO SANT HONOR0000057.90
0000000055802BOLO CONDOR RECH.0000064.90
0000000055864BOLO CONDOR RECH.0000059.90
0000000055888BOLO CONDOR RECH.0000069.90
0000000055895BOLO CONDOR RECH.0000059.90
0000000055970CHIPA SALSINHA KG0000059.90
0000000056014BOLO CONDOR RECH.0000064.90
0000000056373ALCATRA SUINA SUL0000028.99
0000000056380SOBREPALETA SUINA0000029.99
0000000056397PERNIL SUINO SULI0000033.79
0000000056403RICOTA BOM DESTIN0000044.90
0000000056441BISC.DE POLVILHO 0000059.90
0000000056458BIFE ANCHO BOVINO0000054.90
0000000056564LINGUICA FRICASA 0000019.59
0000000056571BACON DE PALETA F0000025.59
0000000056588BACON DE PALETA F0000028.90
0000000056755EMPADA DE FRANGO 0000006.90
0000000056762EMPADA DE PALMITO0000007.69
0000000056809PICANHA BOVINA A 0000079.90
0000000056823CUCA NESTLE KIT K0000059.90
0000000056847TORTA NESTLE TRUF0000064.90
0000000056854TORTA RED VELVET 0000065.90
0000000056861ARROZ+CNE GREL+BA0000049.90
0000000056878ARROZ+CNE PAN+FAR0000049.90
0000000056953T-BONE BOVINO C/O0000045.90
0000000056977LINGUICA FRICASA 0000023.59
0000000057219MIOLO PERNIL SUIN0000033.79
0000000057226BACON SADIA PEDAC0000034.90
0000000057349OVO DE COLHER CRO0000049.90
0000000057578FILE DE PEITO MAR0000026.99
0000000057615PEITO FRANGO MARI0000021.69
0000000057622ASA DE FRANGO MAR0000022.69
0000000057639COXA C/SCOXA MARI0000017.49
0000000057684TORTA NESTLE CHAR0000069.90
0000000057691BOLO NESTLE BRIG/0000064.90
0000000057707BOLO NESTLE ABACA0000064.90
0000000057714BOLO NESTLE DE PI0000069.90
0000000057721QUEIJO CRUZILIA M0000062.90
0000000057882COSTELA BOVINA DE0000042.90
0000000058018LINGUICA FRIGONOV0000024.75
0000000058124PAO DE LINGUICA C0000083.47
0000000058148PERA ASIATICA IMP0000018.99
0000000059008QUEIJO MOZZARELLA0000079.25
0000000059022BOLO CONDOR RECH.0000062.90
0000000059183COSTELA JANELA BO0000032.69
0000000059190PASTEL DE BELEM 60000006.99
0000000059213ABOBORA MENINA VE0000009.98
0000000059220COSTELA BOVINA MA0000029.90
0000000059268COXA C/SCOXA COPA0000016.99
0000000059275MACARRAO C/MOLHO 0000034.90
0000000059282FILE DE FRANGO C/0000057.90
0000000059305BISTECA SUINA CON0000016.97
0000000059329GRANITO BOVINO RE0000045.90
0000000059343CHIPA DA NONNA TR0000042.90
0000000059350MINI PAO DE QUEIJ0000042.90
0000000059367PALITO DA NONNA P0000049.90
0000000059619MELANCIA PINGO DO0000007.49
0000000059626MELANCIA PINGO DO0000009.98
0000000059633PICANHA BOVINA MA0000099.90
0000000059664MAMINHA BOVINA MA0000075.90
0000000059671FRALDINHA BOVINA 0000069.90
0000000059688BIFE ANCHO BOVINO0000049.90
0000000059695CUPIM BOVINO MATU0000065.90
0000000059701CONTRA FILE BOVIN0000084.90
0000000059718CORACAO DA ALCATR0000081.90
0000000059879QUEIJO PRATO TIRO0000011.99
0000000059909DONUT MELHOR BOCA0000005.99
0000000059916DONUT MELHOR BOCA0000005.99
0000000059923DONUT MELHOR BOCA0000005.99
0000000059947AVE BELLAVES TEMP0000007.99
0000000059954PAO DE MANDIOQUIN0000026.90
0000000059961PAO DE CENOURA DO0000026.90
0000000059978PAO DE ABOBORA DO0000026.90
0000000059985PAO DE BATATA DOC0000026.90
0000000059992CORACAO BOVINO RE0000011.79
0000000060004PAO DE BATATA DO 0000026.90
0000000060011QUEIJO VERDE CAMP0000049.90
0000000060097BRIOCHE DO CAMPO 0000026.90
0000000060103PAO DE MEL DO CAM0000044.05
0000000060189CHICKEN SUPREME K0000089.90
0000000060196LINGUA BOVINA RES0000018.49
0000000060219RIM BOVINO RESF.K0000004.59
0000000060226RABO BOVINO RESF.0000036.89
0000000060233BUCHO BOVINO EM T0000020.69
0000000060257MOCOTO BOVINO RES0000014.99
0000000060264FIGADO BOVINO RES0000018.49
0000000060288LANCHE X BURGUER 0000011.99
0000000060295LANCHE X BURGUER 0000012.99
0000000060325CANELONE VOVO DE 0000019.45
0000000060349EMPADAO DE FRANGO0000029.90
0000000060356LASANHA VOVO DE B0000019.90
0000000060387NHOQUE DE BATATA 0000019.90
0000000060394NHOQUE DE BATATA 0000019.90
0000000060424PANQUECA VOVO DE 0000023.99
0000000060431PANQUECA VOVO DE 0000023.99
0000000060448PANQUECA VOVO DE 0000023.99
0000000060455RONDELE VOVO DE P0000021.90
0000000060462SOFIOLI VOVO DE 40000019.90
0000000060479DONUT MELHOR BOCA0000005.99
0000000060516TORTA MARACUJA/NE0000079.90
0000000060523BOLO PUDIM FTAS V0000046.90
0000000060530BOLO PUDIM CENOUR0000036.90
0000000060554BOLO BROWNIE C/MO0000059.90
0000000060561BOLO BROWNIE C/MO0000059.90
0000000060578ARROZ INTEG.ORG.K0000045.90
0000000060615QUEIJO MOZZARELLA0000054.90
0000000060776BATATA BRANCA NAT0000002.99
0000000060806VINAGRETE KG     0000024.90
0000000060813CENOURA RALADA/FA0000026.90
0000000060820ABOBRINHA CORTADA0000016.90
0000000060837REPOLHO FAT.KG   0000022.25
0000000060844ALHO DESCASCADO V0000105.35
0000000060851ABACAXI PEROLA VA0000019.78
0000000060875MORANGO KG       0000060.90
0000000060882ABOBORA KABOTIA V0000013.88
0000000060905MIX BATATA SALSA/0000020.90
0000000060929MIX VAGEM/CENOURA0000027.08
0000000060936ABACAXI PEROLA CU0000025.90
0000000060950MORTADELA PERDIGA0000029.50
0000000061018COCO RALADO LASCA0000025.90
0000000061032MELANCIA CUBOS KG0000013.90
0000000061049MIX DE FOLHAS KG 0000025.65
0000000061056MAMAO FORMOSA CUB0000019.90
0000000061063MELANCIA FAT.KG  0000006.15
0000000061094MELAO ESPANHOL CU0000024.90
0000000061124MIX DE UVA KG    0000019.90
0000000061209RICOTA SANTA CLAR0000065.15
0000000061377MELAO SAPO CUBOS/0000010.45
0000000061384BATATA CUBOS/PALI0000013.90
0000000061551COUVE MANTEIGA FA0000029.99
0000000061568FILE DA ALCATRA S0000033.99
0000000061698QUEIJO FRIMESA SU0000157.99
0000000061704QUEIJO FRIMESA ES0000161.99
0000000061711QUEIJO FRIMESA EM0000161.99
0000000061735OVO DE COLHER PRE0000049.90
0000000061742OVO DE COLHER PIS0000081.58
0000000061766QUEIJO CRIOULO GO0000122.08
0000000061797TABULE DE QUINOA 0000052.90
0000000061810BOLO NESTLE MOCA 0000064.90
0000000061841BOLO NESTLE GALAK0000059.90
0000000061858BOLO NESTLE ALPIN0000064.90
0000000061865BOLO NESTLE SUFLA0000064.90
0000000061872BOLO NESTLE PREST0000064.90
0000000061896SALADA DE GRAO DE0000059.90
0000000061902SALADA DE GRAO DE0000038.08
0000000061919ARROZ C/BACALHAU 0000161.95
0000000061933EMPADA DE FRANGO 0000007.99
0000000061940QUEIJO COALHO FRI0000086.90
0000000061988MEDALHAO DE BACAL0000159.90
0000000062008QUEIJO TEIXEIRA M0000073.99
0000000062046BACALHAU PORTO GA0000159.90
0000000062053OVO DE COLHER CAR0000049.90
0000000062107MAMINHA BOVINA RE0000067.90
0000000062145CUPIM BOVINO RESE0000056.90
0000000062190FRANGO SEARA GOUR0000063.90
0000000062206PRESUNTO FRIMESA 0000067.90
0000000062282COSTELA DO TRASEI0000031.90
0000000062299QUEIJO SANTA CLAR0000129.90
0000000062305RICOTA SANTA CLAR0000048.90
0000000062312COSTELA JANELAO B0000036.69
0000000062794PAO BAGUETE C/QJO0000022.90
0000000062800PAO BAGUETE C/GER0000022.90
0000000063135COXINHA DA ASA MA0000021.99
0000000063142FILE COXA C/SCOXA0000023.99
0000000063203PAO DE MANTEIGA K0000026.90
0000000063432PAVE DE ABACAXI K0000069.90
0000000063449PAVE OPERA DE CAF0000069.90
0000000063562MADALENA COZZINE 0000049.90
0000000063579LASANHA COZZINE B0000049.90
0000000063586LASANHA COZZINE P0000049.90
0000000063609PEITO FRANGO COPA0000015.99
0000000063630CANELONE COZZINE 0000049.90
0000000063647PANQUECA COZZINE 0000049.90
0000000063654RONDELLI COZZINE 0000049.90
0000000063739ABOBRINHA VERDE K0000006.35
0000000063746BERINJELA KG BDJA0000008.55
0000000063753PIMENTAO VERDE KG0000014.45
0000000063760TOMATE GRAPE KG B0000036.98
0000000063944PIMENTA VERMELHA 0000028.45
0000000063951PEPINO CAIPIRA KG0000008.55
0000000063975TOMATE KG BDJA   0000014.25
0000000063982TOMATE ITALIANO K0000017.77
0000000063999PEPINO JAPONES KG0000006.99
0000000064057BATATA DOCE ROXA 0000004.28
0000000064071BETERRABA KG BDJA0000017.08
0000000064095CEBOLA ROXA MEDIA0000027.05
0000000064101CEBOLA BRANCA MED0000018.48
0000000064163MINI BOLO PE DE M0000053.49
0000000064200FRANGO COPACOL S/0000027.99
0000000064309MINI BOLO DE PACO0000042.90
0000000064316MINI BOLO DE FUBA0000042.90
0000000064354ALCATRA BOVINA RE0000069.90
0000000064361ALCATRA BOVINA RE0000069.90
0000000064378BABY BEEF BOVINO 0000067.90
0000000064385BOMBOM DA ALCATRA0000067.99
0000000064392MEDALHAO DA ALCAT0000067.99
0000000064460TIRAS DE ALCATRA 0000068.99
0000000064521BIFE DE CHORIZO B0000068.99
0000000064538CUBOS NOBRE BOVIN0000058.99
0000000064545TIRAS DE PATINHO 0000059.90
0000000064552BIFE P/ROLE BOVIN0000055.90
0000000064569CUBOS DE POSTA VE0000056.90
0000000064576PEIXINHO BOVINO S0000038.88
0000000064583CUBOS DE PALETA B0000048.99
0000000064590ASSADO DE TIRAS B0000027.90
0000000064620GOIABADA PREDILEC0000011.98
0000000064729SOBRECOXA CONG.KG0000009.49
0000000064828ABACAXI HAVAI COR0000025.90
0000000064835ABACAXI PEROLA CO0000025.90
0000000064842COCO SECO CORTADO0000012.69
0000000064859GOIABA VERMELHA C0000014.90
0000000064880MIX DE FRUTAS KG 0000045.90
0000000064897MAMAO FORMOSA COR0000009.89
0000000064903MAMAO PAPAYA/HAVA0000011.49
0000000064910MANGA PALMER CORT0000024.90
0000000064927MANGA TOMY CORTAD0000026.90
0000000064934MARACUJA SUCO COR0000039.90
0000000064941MELANCIA CORTADA 0000003.99
0000000064972MELAO DINO CORTAD0000006.99
0000000064989MELAO ESPANHOL CO0000008.79
0000000065016MELAO ORANGE CORT0000009.65
0000000065023MELAO PINGO DE ME0000013.90
0000000065030MELAO SAPO CORTAD0000008.79
0000000065184MADALENA DE CARNE0000068.90
0000000065207ABACATE KG       0000007.99
0000000065221ESCONDIDINHO KG  0000059.90
0000000065238PANQUECA DE CARNE0000049.90
0000000065450RICOTA MONTEMINAS0000027.49
0000000065467QUEIJO DUMONT MIN0000052.29
0000000065504BOLO DE POTE NEST0000064.90
0000000065511BOLO DE POTE NEST0000064.90
0000000065528BOLO DE POTE NEST0000064.90
0000000065535BOLO DE POTE NEST0000064.90
0000000065542BOLO DE POTE NEST0000064.90
0000000065559BOLO DE POTE NEST0000064.90
0000000065566BOLO DE POTE NEST0000064.90
0000000065573BOLO DE POTE NEST0000064.90
0000000065580BOLO DE POTE NEST0000063.40
0000000065603QUEIJO BOM DESTIN0000061.90
0000000065627BOLO DE POTE NEST0000095.05
0000000065726QUEIJO FRIMESA PA0000157.09
0000000065801LOMBO SUINO SADIA0000026.69
0000000065856MACA GALA IMP.KG 0000012.99
0000000065863PERA IMP.KG      0000008.98
0000000065894QUEIJO COALHO PRE0000101.90
0000000065900LARANJA IMP.KG   0000007.99
0000000065924MACA GRANNY IMP.K0000013.99
0000000065979ARROZ INTEGRAL C/0000039.19
0000000065986QUEIJO CRIOULO MI0000085.29
0000000065993BIFE ANCHO BOVINO0000049.90
0000000066563PICANHA SUINA SAD0000039.99
0000000066723PANETTONE NESTLE 0000093.88
0000000066730PANETTONE NESTLE 0000090.75
0000000066761PUDIM DE CARAMELO0000049.90
0000000066778QUEIJO RALADO MOZ0000061.90
0000000066792FRANGO CAIPIRA NH0000020.49
0000000066822FRANGO CAIPIRA NH0000020.99
0000000066853BATATA DOCE ASSAD0000035.85
0000000066921CONTRA FILE BOVIN0000034.97
0000000066945QUEIJO RALADO LA 0000092.95
0000000066952QUEIJO LA PAULINA0000089.07
0000000066969PUDIM DE LEITE CO0000066.59
0000000066990JOELHO SUINO AURO0000030.45
0000000067003SALAME FRIMESA AL0000088.90
0000000067218TENDER SUINO PAMP0000060.05
0000000067294BARRIGA SUINA SEA0000029.90
0000000067300FILE MIGNON SUINO0000029.90
0000000067317COPA LOMBO SUINO 0000029.90
0000000067324LOMBO SUINO SEARA0000029.90
0000000067478OVO DE COLHER PRE0000218.15
0000000067485OVO DE COLHER CRO0000200.07
0000000067492LINGUICA MACHULEK0000039.90
0000000067508LINGUICA MACHULEK0000039.90
0000000067515TORRESMO MACHULEK0000037.90
0000000067522COSTELA SUINA MAC0000052.90
0000000067539INGREDIENTES P/FE0000033.90
0000000067546MORCELA MACHULEK 0000029.90
0000000067553BACON MACHULEK CR0000053.95
0000000067560LINGUICA MACHULEK0000035.79
0000000067584MORTADELA MACHULE0000020.79
0000000067607TOMATE GRAPE KG  0000015.99
0000000067713COXINHA DE FRANGO0000004.99
0000000067751SANDUICHE CURITIB0000014.90
0000000067768BOLO DE LARANJA K0000036.90
0000000068024SALSICHAO BIZINEL0000033.89
0000000068031BACON BIZINELLI V0000057.90
0000000068406PEITO FRANGO SEAR0000028.99
0000000068444FILE DE PEITO SEA0000027.98
0000000068451FILE DE PEITO SEA0000026.47
0000000068468MEIO DA ASA SEARA0000026.59
0000000068611TORTA BANOFFEE KG0000059.90
0000000068802MELANCIA PINGO DO0000006.89
0000000068833COSTELA MINGA BOV0000032.88
0000000069007MELANCIA PINGO DO0000006.99
0000000069229PERNIL SUINO ALEG0000030.65
0000000069601CAFE COLONIAL KG 0000059.90
0000000070423CUBOS DE COSTELA 0000032.79
0000000071444LINGUICA FRIGONOV0000042.45
0000000071604LINGUICA FRIGONOV0000034.95
0000000072298BISTECA SUINA SAD0000024.89
0000000072496BANANA CATURRA BD0000004.65
0000000072502BANANA PRATA BDJA0000005.09
0000000072519BANANA MACA BDJA 0000014.99
0000000072526BANANA OURO BDJA 0000011.25
0000000072601MUSCULO BOVINO RE0000045.90
0000000072649ALCATRA BOVINA RE0000062.90
0000000073295ABOBORA KABOTIA C0000002.99
0000000073301ABOBORA MORANGA C0000004.99
0000000073318ABOBORA ITALIA CO0000008.79
0000000073943PAO DE MILHO KG  0000026.90
0000000074049PAO CASEIRO KG   0000022.90
0000000074056PAO PETROPOLIS KG0000019.90
0000000074063PAO SOVADO KG    0000028.90
0000000074148BOLINHO DE CARNE 0000011.69
0000000074292FILE DE TILAPIA F0000089.90
0000000074421PAO VENEZA KG    0000036.90
0000000074438PAO RUSTICO DE AC0000032.90
0000000074834MOELA DE FRANGO S0000015.97
0000000074889MIX PIMENTAO PICA0000031.90
0000000074902PAO FRANCES C/FIB0000019.90
0000000074926PAO CASEIRINHO KG0000024.90
0000000074933PAO BAGUETE DA NO0000019.90
0000000074940MINI PAO BAGUETE 0000018.99
0000000074957PAO INTEG.KG     0000019.90
0000000074964MIX BATATA/CENOUR0000027.90
0000000074971MIX SALADA SORT.H0000033.90
0000000074995BRIOCHE NINHO KG 0000039.90
0000000075008SALADA DE FRUTAS 0000032.90
0000000075404BOLO DE CHOCOLATE0000036.90
0000000075411BOLO BOMBOCADO KG0000036.90
0000000075695MORTADELA JULIATT0000033.69
0000000075909BACON SEARA GOURM0000051.90
0000000075992BOLO NESTLE NAPOL0000064.90
0000000076012BOLO NESTLE FLORE0000064.90
0000000076104QUEIJO SANTA CLAR0000114.90
0000000076142QUEIJO SANTA CLAR0000145.90
0000000076494MORTADELA COPACOL0000025.99
0000000076999CONTRA FILE BOVIN0000035.90
0000000077897COPA FRIMESA LOMB0000029.59
0000000078924COSTELA SUINA RES0000027.79
0000000079402SOPA DE MANDIOCA 0000039.90
0000000079761COSTELA MINGA BOV0000029.98
0000000079778COSTELA RIPA BOVI0000028.98
0000000080200MINI CHURROS DOCE0000048.69
0000000080576BISTECA SUINA RES0000018.97
0000000080897PERNIL SUINO RESE0000017.97
0000000080903PALETA SUINA RESE0000017.97
0000000080910BARRIGA SUINA RES0000029.79
0000000080934PIZZA CONDOR LOMB0000049.90
0000000081092BRIOCHE FTAS KG  0000039.90
0000000081627CREME DE MILHO C/0000036.90
0000000082402PICANHA BOVINA RE0000099.90
0000000083829CANJICA CAIPIRA K0000068.39
0000000084321PAO DE QUEIJO DA 0000007.18
0000000084598MACA DO AMOR UN  0000009.90
0000000085595QUEIJO SANTA CLAR0000079.90
0000000085861CHULETA BOVINA C/0000036.97
0000000085878COSTELA BOVINA BO0000032.29
0000000086615LOMBO SUINO FRIGO0000059.39
0000000086622MASCARA SUINA FRI0000026.89
0000000086639LINGUICA FRIGONOV0000044.17
0000000086646PE SUINO FRIGONOV0000026.89
0000000086653RABO SUINO FRIGON0000034.45
0000000086660SALSICHAO FRIGONO0000036.67
0000000086691MELANCIA MAGALI K0000009.69
0000000086721INGREDIENTES P/FE0000025.49
0000000086998LINGUICA SUINA FR0000059.18
0000000087001COXA C/SCOXA SEAR0000017.69
0000000087018CUPIM BOVINO PEDA0000034.90
0000000087643COPA LOMBO SUINO 0000027.99
0000000087667PANCETA SUINA SEA0000031.79
0000000087681FILE MIGNON SUINO0000031.49
0000000087759PICANHA SUINA SEA0000034.69
0000000087797LINGUICA FRIMESA 0000041.90
0000000088718MINI PAO DE QUEIJ0000046.90
0000000088725CROISSANT FORNO D0000005.99
0000000089012LINGUICA ALEGRA S0000019.49
0000000089142CALZONE MAS.CNE/C0000007.35
0000000089210ESFIRRA MAS.CNE 10000006.25
0000000090995COXINHA DA ASA CO0000014.90
0000000091015QUEIJO MONTEMINAS0000036.49
0000000091206PERNIL SUINO C/O 0000017.97
0000000091220PALETA SUINA C/O 0000017.97
0000000091244BIFE BOVINO BORBO0000049.90
0000000091251BIFE BOVINO A MIN0000047.99
0000000091268BIFE BOVINO P/MIL0000051.90
0000000091275BIFE BOVINO DE CA0000051.90
0000000091282MEDALHAO DE MIGNO0000074.90
0000000091299PAO GRANO RUSTICO0000025.95
0000000091497CHINECK DE FAROFA0000029.90
0000000091503CHINECK DE CREME 0000029.90
0000000091510CHINECK DE BANANA0000029.90
0000000091527CHINECK DE COCO K0000029.90
0000000091633BRIOCHE TRAD.KG  0000036.90
0000000091640BRIOCHE GOTAS CHO0000034.90
0000000091657BRIOCHE FTAS KG  0000036.90
0000000091664BRIOCHE COCO KG  0000036.90
0000000091718PRESUNTO FRIMESA 0000086.55
0000000093019MEDALHAO DE LOMBO0000036.79
0000000093026COSTELA SUINA GRI0000028.89
0000000093033BIFE SUINO DE LOM0000035.99
0000000093088FILE MIGNON SUINO0000035.99
0000000093125COSTELINHA SUINA 0000031.69
0000000093163BIFE SUINO DE ALC0000030.79
0000000093248CUBOS DE PERNIL/P0000018.49
0000000093293ARROZ+STROG.+BAT.0000049.90
0000000093309ARROZ+ALM+PURE BA0000049.90
0000000093323ARROZ+FGO PARM.+B0000049.90
0000000093330ARROZ+PEIXE FRITO0000049.90
0000000093361PEIXE GRATINADO C0000080.55
0000000093644LINGUICA AURORA P0000024.29
0000000093705ARROZ+FEIJOADA+CO0000049.90
0000000094191MEIO DA ASA CONG.0000019.99
0000000094405QUEIJO VERSOS DE 0000149.90
0000000094412QUEIJO CRUZILIA M0000127.99
0000000094597PANCETA SUINA FAT0000035.89
0000000095006CORTE SUINO TIPO 0000034.69
0000000095044SUCO DE ABACAXI C0000008.98
0000000095051SUCO DE GOIABA 500000008.98
0000000095068AGUA DE COCO 500M0000009.98
0000000095075SUCO DE MANGA 5000000008.98
0000000095082SUCO DE MARACUJÁ 0000008.98
0000000095099SUCO DE MELANCIA 0000008.98
0000000095396BISTECA SUINA FAT0000018.97
0000000095433EMPADAO DE FRANGO0000053.90
0000000095440EMPADAO DE PALMIT0000053.90
0000000096195FRANGO DE PADARIA0000012.78
0000000096218FRANGO DE PADARIA0000012.78
0000000096331COSTELA SUINA PER0000034.99
0000000096393BACON SEARA PEDAC0000039.90
0000000096447LINGUICA SEARA TP0000031.99
0000000096461BACON PERDIGAO PE0000036.99
0000000096515COSTELA SUINA SAD0000027.59
0000000096546LINGUICA PERDIGAO0000021.90
0000000096577LINGUICA ALEGRA T0000019.90
0000000097086BACON ALEGRA PEDA0000038.99
0000000097130LINGUICA FRIMESA 0000024.49
0000000097154BACON FRIMESA PED0000039.99
0000000097246FRANGO ASSADO KG 0000033.90
0000000097369MINI PAO DE QUEIJ0000039.90
0000000097529QUEIJO CRUZILIA S0000178.58
0000000097536QUEIJO LAC LELO P0000104.65
0000000097697SOBREPALETA SUINA0000028.98
0000000097703FILE MIGNON SUINO0000028.98
0000000097710LOMBO SUINO TONIN0000028.98
0000000097727PICANHA SUINA TON0000028.98
0000000097833QUEIJO COALHO CRU0000103.89
0000000098090QUEIJO FRIMESA CO0000084.90
0000000098885SHORT RIB SUINO S0000068.90
0000000098939BANANINHA BOVINA 0000039.90
0000000099028FRALDINHA BOVINA 0000069.90
0000000099196PAO DE AGUA CERVE0000015.98
0000000099691PALETA BOVINA C/O0000026.79
0000001154801MACA GOLDEN KG   0000016.99
0000031510585COD.P/COMPRA PAO 0000017.95
0000031592758ALHO CONDOR N.1500000004.58
0000031618090UVA VITORIA BENAS0000007.25
0000031625067ALHO CONDOR H.1500000004.58
0000031653992BROCOLIS UN      0000009.99
0000031726276BEB.LACTEA NESCAU0000002.99
0000031771009CHOCOTTONE BAUDUC0000038.75
0000031788427OVOS MANTIQUEIRA 0000025.79
0000031839570BISC.BAUDUCCO A.S0000047.65
0000031839587PAO DE MEL BAUDUC0000021.69
0000031839624PANETTONE BAUDUCC0000044.88
0000031851329EMB.P/CESTA DE NA0000014.69
0000031903448MUDA ORQUIDEA S/F0000007.99
0000031903875MUDA S/FLOR      0000003.99
0000031911993PRESUNTO ALEGRA F0000006.89
0000031945165MARMITAS (USO INT0000012.15
0000031963091MORTADELA MARBA D0000005.99
0000031963329MORTADELA MARBA T0000005.49
0000031966788QUEIJO PRESIDENT 0000011.49
0000031979306QUEIJO PRATO FRIM0000012.98
0000031979429MORTADELA SEARA G0000005.49
0000031981637BISC.BAUDUCCO REC0000005.85
0000031981651BISC.BAUDUCCO COO0000014.88
0000032001471MORTADELA FRIMESA0000006.69
0000032013986QUEIJO LITORAL MU0000016.90
0000032023794CARNE MOIDA BOVIN0000025.98
0000032038491QUEIJO ARGENTINO 0000022.99
0000032049824LEVISSIMO SEARA F0000009.15
0000032054866HORTENCIA P14    0000033.99
0000032055955CARNE MOIDA BOVIN0000023.49
0000032068771QUEIJO MOZZARELA 0000008.98
0000032074314QUEIJO MOZZARELA 0000021.79
0000032081671SALSICHA SEARA HO0000012.98
0000032089110QUEIJO TIROL MUSS0000021.99
0000032096132CARNE MOIDA BOVIN0000018.97
0000032139457BOLINHO BAUDUCCO 0000002.65
0000032175301SALSICHA NOBRE HO0000007.98
0000032181630ALHO PORO UN     0000003.89
0000032185188MAMAO FORMOSA CUB0000019.90
0000032185201COCO RALADO LASCA0000025.90
0000032186420MELANCIA FAT.KG  0000006.15
0000032206296SALSICHA COPACOL 0000011.89
0000032224436EMB.P/CESTA DE NA0000089.49
0000032226485BRIOCHE DA NONNA 0000008.99
0000032226515BROA DE CENTEIO D0000011.98
0000032226546BROA DA NONNA MUL0000012.99
0000032226560BROA DA NONNA CAS0000011.98
0000032226577PAO DE LEITE DA N0000006.99
0000032226591PAO DE FORMA DA N0000005.99
0000032226614PAO P/HAMBURGUER 0000006.99
0000032226638PAO DA NONNA HOT 0000008.99
0000032226652PAO CROISSANT DA 0000030.05
0000032237696QUEIJO MANDAKA MU0000017.90
0000032237702QUEIJO MANDAKA MU0000009.49
0000078903784SOB.BATAVO CREAMY0000004.19
0000078903791SOB.BATAVO CREAMY0000004.19
0000078906679REQUEIJAO AVIACAO0000015.79
0000078912274SOB.BATAVO FLAN B0000004.19
0000078912298SOB.BATAVO FLAN B0000004.19
0000078936126IOG.NESTLE GREGO 0000002.79
0000078936171IOG.NESTLE GREGO 0000002.79
0000078936195SOB.NESTLE CHANDE0000005.99
0000078936690IOG.NESTLE GREGO 0000002.79
0000200000145ABACAXI PEROLA UN0000008.98
0000301000082ALMOCO PROMOTORES0000009.90
0000301022015BANANA PRATA UN  0000001.14
0000301022022BANANA CATURRA UN0000000.56
0000301023005FRANGO ASSADO 9000000039.90
0000400025269MANGA ESPADA KG  0000024.99
0040141070760MACA 850G PCT    0000005.99
0040141379535BROCOLIS UN      0000009.99
0040141586544BATATA PRIMEIRINH0000009.98
0040141586575BATATA PRIMEIRINH0000009.98
0040232714573SANDUICHE CLASSIC0000020.15
0040232714580SANDUICHE ATELIE 0000018.99
0040232714658SALADA ATELIE P.P0000023.99
0040232714672SALADA DE FRANGO 0000024.29
0040232863615WRAP DE FRANGO 150000022.65
0040232863622WRAP DE PEITO DE 0000018.45
0040232863646SANDUICHE CREM.AT0000013.99
0040232863653SANDUICHE CREM.FG0000013.99
0070341462881MANDIOCA BASSETTO0000007.49
0074468669932UVA ROSADA/NIAGAR0000007.99
0602883287389MANDIOCA FAMILIA 0000007.05
0602883324978BROCOLIS UN      0000009.99
0602883324985COUVE FLOR UN    0000009.49
0602883325005MORANGO 250G BDJA0000010.79
0602883464162UVA PRETA S/SEMEN0000008.98
0602883464179UVA ROSADA/NIAGAR0000007.99
0602883464193UVA BRANCA S/SEME0000011.49
0602883486515MIX DE COGUMELOS 0000013.49
0602883775046COGUMELO ROLDI SH0000010.99
0602883793910MIRTILO BDJA     0000013.99
0602883879850MORANGO 250G BDJA0000010.79
0602883942943UVA NIAGARA 1,3KG0000018.15
0606529170318VAGEM IRMAOS SERV0000007.99
0606529259044TOMATE SWEET GRAP0000008.99
0606529259075CHEIRO VERDE IRMA0000007.99
0606529347475PUDIM DE LEITE RE0000004.99
0606529458201UVA ROSADA/NIAGAR0000007.99
0606529523633FIOS DE OVOS AMAR0000150.85
0606529702656COUVE MANTEIGA PI0000008.99
0606529702663PIMENTA BIQUINHO 0000005.99
0606529702670PIMENTA DEDO DE M0000005.99
0606529702687PIMENTA AMER.IRMA0000005.99
0606529702717JILO IRMAOS SERVE0000006.99
0606529702731CORACAO ALFACE AM0000005.49
0606529983413ABOBORA CABOTIA P0000008.99
0606529983437PIMENTA CAMBUCI I0000005.99
0606529983482CENOURA IRMAOS SE0000005.99
0609963493685CALDO DE CANA PIN0000018.99
0609963493692CALDO DE CANA PIN0000018.99
0609963493708CALDO DE CANA PIN0000018.99
0613960131853BATATA PRIMEIRINH0000009.98
0618231000234PAVE FAMILIA PAVE0000015.90
0618231000241PAVE FAMILIA PAVE0000035.90
0618231000289PAVE FAMILIA PAVE0000035.90
0618231000296PAVE FAMILIA PAVE0000035.90
0618231000319PAVE FAMILIA PAVE0000035.90
0618231000326PAVE FAMILIA PAVE0000035.90
0618231000388PAVE FAMILIA PAVE0000015.90
0618231000395PAVE FAMILIA PAVE0000015.90
0618231000401KIT PAVE+PUDIM FA0000027.95
0618231000418PAVE FAMILIA PAVE0000015.90
0618231000425PAVE FAMILIA PAVE0000015.90
0618231609390MORANGO 500G BDJA0000024.39
0618231697182MORANGO 250G BDJA0000010.79
0618231881543MORANGO 250G BDJA0000010.79
0618231881550MORANGO 500G BDJA0000024.39
0618231926701BATATA PRIMEIRINH0000009.98
0618341432550CALDO DE CANA PIN0000008.49
0618341432567CALDO DE CANA PIN0000008.49
0618341432734CALDO DE CANA PIN0000008.49
0618341506893COGUMELO ROLDI ES0000013.89
0618341873032QUIABO PE VERMELH0000005.99
0618341873056PEPINO PE VERMELH0000008.39
0618341873094JILO PE VERMELHO 0000004.99
0618341873131CENOURA PE VERMEL0000002.49
0618341873148VAGEM PE VERMELHO0000005.99
0618341873155PIMENTAO MISTO PE0000005.99
0618341873186TOMATE CEREJA PE 0000002.49
0618341971943ERVILHA PE VERMEL0000007.99
0618341972032UVA ROSADA/NIAGAR0000007.99
0618341972049UVA ROSADA/NIAGAR0000007.99
0619205317891TAMARINDO BDJA   0000022.90
0619205416396SERIGUELA SABOR D0000008.99
0619205803288FRAMBOESA PALANDA0000031.49
0619205803318FRAMBOESA PALANDA0000031.49
0619205803325FRAMBOESA PALANDA0000032.95
0630941723883MORANGO 250G BDJA0000010.79
0630941840634PERA BDJA        0000004.99
0631430082658MORANGO 250G BDJA0000010.79
0729208125673MIRTILO BDJA     0000013.99
0735810199865ESCONDIDINHO DE C0000030.65
0735810199919PENNE AO MOLHO BR0000024.79
0736532039811ACELGA IRMAOS SER0000008.99
0736532039835COUVE FLOR IRMAOS0000010.49
0736532039842QUIABO IRMAOS SER0000007.99
0736532039859MIX YAKISSOBA IRM0000013.79
0736532039880MILHO VERDE IRMAO0000006.79
0736532039903REPOLHO VERDE IRM0000007.49
0736532039910MIX SALADA IRMAOS0000008.99
0736532039941MIX LEGUMES IRMAO0000008.99
0736532039958BROCOLIS IRMAOS S0000009.99
0736532040008PIMENTAO COLORIDO0000007.99
0736532040107REPOLHO ROXO IRMA0000008.99
0736532132277BANANA CHIPS SALG0000002.99
0736532142887COCO VERDE AUTENT0000008.99
0736532161857COGUMELO SHITAKE 0000021.99
0736532619051TOMATE GRAPE FRIE0000009.45
0736532619075TOMATE ITA.FRIEDR0000011.98
0736532788917MACA 850G PCT    0000005.99
0742832318716SERIGUELA SABOR D0000008.99
0742832716833AVEIA/CLOROFILA P0000009.59
0742832770392UVA RUBI 500G    0000007.88
0742832770408UVA ITALIA 500G  0000014.95
0742832770415UVA VERMELHA C/SE0000013.65
0742832770439UVA PRETA S/SEMEN0000008.98
0742832770446UVA ROSADA/NIAGAR0000007.99
0742832770453UVA BRASIL 500G  0000007.88
0742832988384AIPIM DESCASCADO 0000005.99
0742832992299BATATA PRIMEIRINH0000009.98
0742832998666UVA RUBI 500G    0000007.88
0742832998673UVA ITALIA 500G  0000014.95
0742832998680UVA VERMELHA C/SE0000013.65
0742832998697UVA PRETA S/SEMEN0000008.98
0742832998710UVA NIAGARA 1,3KG0000018.15
0742832998727UVA BRASIL 500G  0000007.88
0742832998734UVA ROSADA/NIAGAR0000007.99
0745604918008ROCAMBOLE DE  DOC0000033.25
0745604918053ROCAMBOLE DE CHOC0000033.25
0745604918060ROCAMBOLE DE GOIA0000033.25
0745604918077PUDIM DE LEITE CO0000066.59
0745604918084PUDIM DE LEITE CO0000012.15
0751320161680COGUMELO PARIS 300000014.99
0751320167071ORQUIDEA PHALAENO0000039.99
0751320449313COGUMELO PARIS 300000014.99
0751320449320COGUMELO SHITAKE 0000021.99
0751320497871SALSA HIDROPONIA 0000002.99
0751320497888CEBOLINHA HIDROPO0000002.89
0751320497895HORTELA HIDROPONI0000002.49
0751320497901MANJERICAO HIDROP0000002.99
0751320497918COENTRO HIDROPONI0000003.49
0751320522917COGUMELO PARIS 200000007.99
0751320542052COUVE HIDROPONIA 0000004.69
0751320628916MUDA DE ALECRIM W0000009.98
0751320754370AMEIXA 500G BDJA 0000007.95
0751320754387UVA ROSADA/NIAGAR0000007.99
0751320766007ALFACE AMER.UN   0000004.69
0751320849823TOMATE SWEET GRAP0000003.99
0789300005105UVA VERMELHA C/SE0000013.65
0789300005112UVA ITALIA 500G  0000014.95
0789608250726FILE COSTA SUL AB0000060.90
0789892529447PRESUNTO HACIENDA0000013.99
0797173003722BOLO CASA SUICA C0000008.98
0883750310007CEREJA IMP.250G  0000015.99
2800001252709PHYSALIS 100G    0000017.99
3023260031741QUEIJO PRESIDENT 0000019.49
3155250349793CHANTILLY PRESIDE0000034.89
3228020355741MANTEIGA PRESIDEN0000011.99
3228020481846QUEIJO PRESIDENT 0000027.99
3228022910023MANTEIGA PRESIDEN0000011.99
4070071967072KIWI 500G BDJA   0000010.99
5900130042220SORVETE LACTA ORE0000018.90
6009650909699BATATA MCCAIN AIR0000020.99
6191448201112TAMARA C/CAROCO 20000004.99
6191514300190TAMARA C/CAROCO 20000004.99
7365324022262UVA BRANCA S/SEME0000011.49
7622210772244CREAM CHEESE PHIL0000011.49
7750431390104MIRTILO BDJA     0000013.99
7750431800016MIRTILO BDJA     0000013.99
7751262001566MIRTILO BDJA     0000013.99
7757746000087MIRTILO BDJA     0000013.99
7758452000323MIRTILO BDJA     0000013.99
7769857142976MORANGO 250G BDJA0000010.79
7798147783223FRAMBOESA FRANUI 0000038.79
7798147784008FRAMBOESA FRANUI 0000038.79
7798201240013MIRTILO BDJA     0000013.99
7798304841650SORVETE GAROTO BO0000012.90
7809576300247CEREJA IMP.250G  0000015.99
7861047723535PICOLE KIBON MAGN0000014.00
7890025006230CARAMBOLA BDJA   0000017.90
7890291075985HEDERA VARIADO P10000016.89
7890291134514CALANDIVA/KALANCH0000007.99
7890291138529GIRASSOL P15     0000012.99
7890291141055CALANDIVA/KALANCH0000016.99
7890291177061CALANDIVA/KALANCH0000002.99
7890291177443BOLA BELGA P11   0000019.90
7890291178655ORQUIDEA DENPHALE0000029.99
7890291178952ERVAS AROMATICAS 0000016.89
7890291202527LIRIO DA PAZ/SPAT0000007.99
7890291202589VIOLETA P11      0000006.99
7890291207171ROSA DO DESERTO P0000016.99
7890291228398CALLA COLORIDA P10000027.99
7890291233941TOSTAO P11       0000008.99
7890291234290ANTHURIUM P17    0000029.99
7890291235730ESPADA SAO JORGE 0000025.79
7890291244169ORQUIDEA DENPHALE0000029.99
7890291245616HEDERA VARIADO P10000016.89
7890291246668MARANTA VARIADO P0000026.90
7890291254687HYPOESTES JARDINE0000012.59
7890291254830GERBERA P14      0000008.99
7890291256308PIMENTA P06      0000004.99
7890291277860HEDERA VARIADO P10000016.89
7890291287159MINI ORQUIDEA PHA0000025.99
7890291294065CALLA COLORIDA P10000027.99
7890291306331SUCULENTA VB P14 0000053.90
7890291306997MINI ORQUIDEA PHA0000025.99
7890291307949BONSAI ARVORE 6 A0000061.90
7890291313636TUIA STRICKITA P20000129.90
7890291315364LIRIO VARIADO P120000009.98
7890291316798ANTHURIUM P12    0000029.99
7890291318310CURCUMA P15      0000024.99
7890291318518TUIA STRICKITA P20000129.90
7890291318723ROSA DO DESERTO P0000016.99
7890291325219ORQUIDEA PHALAENO0000039.99
7890291325301BONSAI FRUTA 6 A 0000064.90
7890291326551SUCULENTA PENDENT0000015.99
7890291332743ORQUIDEA VANDA   0000149.90
7890291339797ORQUIDEA PHALAENO0000029.99
7890291348751ORQUIDEA PHALAENO0000079.99
7890291353830ORQUIDEA PHALAENO0000069.90
7890291353878ORQUIDEA PHALAENO0000069.90
7890291356046ORQUIDEA VANDA   0000149.90
7890291362467MINI ORQUIDEA PHA0000025.99
7890291363167ORQUIDEA ONCIDIUM0000034.99
7890291368384ORQUIDEA PHALAENO0000039.99
7890291371575ORQUIDEA PHALAENO0000039.99
7890291375733ORQUIDEA PHALAENO0000029.99
7890291382335ORQUIDEA PHALAENO0000079.99
7890291382366ORQUIDEA PHALAENO0000079.99
7890291414067ORQUIDEA PHALAENO0000064.90
7890291430340ORQUIDEA PHALAENO0000029.99
7890291430371ORQUIDEA PHALAENO0000069.90
7890291431163ORQUIDEA PHALAENO0000029.99
7890291450423HEDERA VARIADO P10000016.89
7890291451215DRACENA LUCKY BAM0000016.90
7890291459723BEGONIA MACULATA 0000037.59
7890291462914ARVORE DA FELICID0000014.99
7890291463553SUCULENTA COLORS 0000032.99
7890291463560SUCULENTA COLORS 0000032.99
7890291464406MINI ORQUIDEA PHA0000025.99
7890291468367ANTHURIUM VARIADO0000008.99
7890291469692ORQUIDEA PHALAENO0000069.90
7890291471992LISIANTHUS DOUBLI0000010.89
7890291482394TOSTAO ROSA P11  0000012.79
7890291484787ZAMIOCULCAS BLACK0000119.90
7890291491280PLANTA ORNAMENTAL0000062.90
7890291504713PEPEROMIA PROSTAT0000027.99
7890291504782LISIANTHUS DOUBLI0000010.89
7890291505765BEGONIA MACULATA 0000037.59
7890291509985BEGONIA REX P11  0000025.75
7890291545440AVEIA/CLOROFILA P0000009.59
7891000023167BEB.LACTEA NESCAU0000003.25
7891000027967LEITE FERM.CHAMYT0000001.59
7891000067048BEB.LACTEA FAST A0000005.48
7891000070444LEITE FERM.CHAMYT0000006.29
7891000072950IOG.NESTLE NATURA0000003.19
7891000072974IOG.NESTLE NATURA0000003.19
7891000072998IOG.NESTLE NATURA0000003.19
7891000073018IOG.NESTLE NATURA0000003.19
7891000084649REQUEIJAO NESTLE 0000008.59
7891000084663REQUEIJAO NESTLE 0000008.59
7891000090732BEB.LACTEA FAST N0000005.98
7891000094396IOG.NINHO FRUTI M0000008.65
7891000096864IOG.NESTLE GREGO 0000012.69
7891000101926BEB.LACTEA FAST N0000005.48
7891000103852IOG.NINHO MACA/BA0000003.79
7891000103937P-SUISSE NESTLE C0000009.49
7891000105788PICOLE NESTLE PRE0000013.50
7891000106808SORVETE NESTLE BR0000029.90
7891000106921SORVETE NESTLE SE0000029.90
7891000106945SORVETE NESTLE GA0000029.90
7891000106969SORVETE NESTLE NA0000029.90
7891000109670BEB.AVEIA NESFIT 0000015.79
7891000110096SOB.NESTLE CHANDE0000010.89
7891000110829BEB.LACTEA NESCAF0000006.49
7891000120071SORVETE NESTLE NA0000021.90
7891000120507SORVETE NESTLE CR0000021.90
7891000120521SORVETE NESTLE FL0000021.90
7891000241448IOG.NESTLE VITAMI0000002.99
7891000244265IOG.NESTLE MRGO 10000002.99
7891000244449IOG.NESTLE MRGO 10000014.99
7891000252819IOG.CHAMYTO GO MR0000003.19
7891000252833IOG.CHAMYTO GO VI0000003.19
7891000260166IOG.CHAMYTO MRGO/0000004.19
7891000260524SOB.NESTLE FLAN C0000004.89
7891000260609IOG.NESTON MACA/B0000003.49
7891000261002IOG.NINHO MACA/BA0000013.49
7891000261026IOG.NINHO TRAD.540000008.59
7891000261460IOG.CHAMYTO MRGO/0000004.19
7891000261484IOG.NINHO MACA/BA0000002.99
7891000288177BEB.VEG.AMENDOA H0000022.69
7891000298671IOG.NESFIT DESN.M0000004.19
7891000298718IOG.NESFIT MRGO/A0000018.49
7891000301968IOG.NESFIT FTAS V0000018.49
7891000305775IOG.MOLICO S/LAC.0000012.99
7891000305812IOG.MOLICO S/LAC.0000003.39
7891000332269IOG.MOLICO S/LAC.0000003.39
7891000334188IOG.MOLICO S/LAC.0000006.99
7891000340004IOG.NESTLE BI-CAM0000003.59
7891000354155BEB.LACTEA FAST I0000004.35
7891000359822BEB.LACTEA NESCAU0000002.99
7891000360323IOG.NESTON BI-SAB0000008.59
7891000360361IOG.NESTLE GREGO 0000012.69
7891000360620IOG.NESTLE GREGO 0000009.69
7891000360668IOG.NESTLE CHAMBI0000002.99
7891000362037IOG.NESTLE MRGO 50000006.59
7891000363256IOG.NESTLE MRGO/V0000006.59
7891000366141BEB.LACTEA NESQUI0000003.19
7891000369715BEB.LACTEA STARBU0000008.69
7891000369753BEB.LACTEA STARBU0000008.69
7891000370933SOB.NESTLE CHANDE0000012.99
7891000371251IOG.NESFIT ZERO S0000004.19
7891000371299IOG.NESFIT AMEIXA0000018.49
7891000371336BEB.LACTEA STARBU0000008.89
7891000378175IOG.NESTLE NATURA0000006.59
7891000378212IOG.NESTLE NATURA0000006.59
7891000381113BEB.LACTEA NESCAU0000003.49
7891000382349IOG.NESTLE GREGO 0000002.79
7891000382387IOG.NESTLE GREGO 0000002.79
7891000387610PANETTONE NESTLE 0000035.98
7891000389171BEB.LACTEA NESCAF0000006.49
7891000389225BEB.LACTEA NESCAF0000006.79
7891000389300BEB.LACTEA NESCAF0000006.79
7891000390078IOG.NESTLE BI-CAM0000003.59
7891000390214IOG.NESTLE GREGO 0000002.79
7891000393536IOG.NESTLE NATURA0000006.99
7891000394632IOG.NESTLE CHAMBI0000008.49
7891000396452SOB.NESTLE CHANDE0000006.89
7891000399415P-SUISSE NINHO MA0000006.89
7891000401903BEB.LACTEA FAST N0000005.48
7891000702505PICOLE NESTLE CHA0000007.50
7891025101376IOG.DANONE MRGO 10000003.45
7891025106067IOG.DANONINHO P/B0000002.99
7891025109396LEITE FERM.ACTIVI0000003.89
7891025109419LEITE FERM.ACTIVI0000003.89
7891025109884P-SUISSE DANONINH0000009.79
7891025109891P-SUISSE DANONINH0000009.79
7891025109907P-SUISSE DANONINH0000010.59
7891025110668P-SUISSE DANONINH0000003.99
7891025112983P-SUISSE DANONINH0000003.99
7891025115311IOG.YOPRO PROT.150000010.49
7891025115588IOG.PROT.15G YOPR0000011.99
7891025115632BEB.LACTEA PROT.10000008.99
7891025115649BEB.LACTEA PROT.10000008.99
7891025115656BEB.LACTEA PROT.10000008.99
7891025116790REQUEIJAO DANONE 0000008.59
7891025117162LEITE FERM.ACTIVI0000004.25
7891025117742LEITE FERM.ACTIVI0000006.49
7891025117773LEITE FERM.ACTIVI0000006.49
7891025117797LEITE FERM.ACTIVI0000006.49
7891025119524P-SUISSE DANONINH0000010.59
7891025120223IOG.DANONE NATURA0000003.49
7891025120230IOG.DANONE NATURA0000003.49
7891025120674IOG.DANONE CORPUS0000010.89
7891025121435IOG.YOPRO PROT.150000010.59
7891025121442IOG.YOPRO PROT.150000010.59
7891025121619SOB.DANETTE CHOC.0000013.99
7891025121909IOG.DANONE COCO 10000015.49
7891025121916IOG.DANONE VITAMI0000015.49
7891025121923IOG.DANONE MRGO 10000015.49
7891025122067BEB.LACTEA PROT.10000008.99
7891025123194LEITE FERM.ACTIVI0000015.79
7891025123200LEITE FERM.ACTIVI0000015.79
7891025123217LEITE FERM.ACTIVI0000015.79
7891025123392IOG.DANONE GREGO 0000014.95
7891025123453LEITE FERM.ACTIVI0000014.99
7891025123460LEITE FERM.ACTIVI0000014.99
7891025123477LEITE FERM.ACTIVI0000014.99
7891025123484LEITE FERM.ACTIVI0000014.99
7891025124030LEITE FERM.ACTIVI0000014.59
7891025124177IOG.DANONE CORPUS0000014.69
7891025124214IOG.YOPRO PROT.300000019.57
7891025124252BEB.LACTEA PROT.10000008.99
7891025124269BEB.LACTEA PROT.10000008.99
7891025124320LEITE FERM.ACTIVI0000009.99
7891025124436BEB.LACTEA DANONE0000007.99
7891025124474IOG.DANONE KIDS B0000012.99
7891025124481IOG.DANONE KIDS M0000003.69
7891025124498IOG.DANONE KIDS B0000003.69
7891025124504IOG.DANONE KIDS M0000012.99
7891025124535IOG.DANONINHO BOM0000003.98
7891025124542IOG.DANONINHO BOM0000003.98
7891025124559IOG.DANONE NATURA0000006.99
7891025124566IOG.DANONE NATURA0000006.99
7891025124573IOG.DANONE NATURA0000005.39
7891025124597IOG.DANONE NATURA0000005.39
7891025124603IOG.DANONE NATURA0000005.39
7891025124627BEB.LACTEA PROT.10000008.99
7891025124634IOG.DANONINHO BOM0000002.99
7891025124641IOG.DANONINHO BOM0000002.99
7891025124702IOG.DANONE QUAKER0000009.49
7891025124733IOG.DANONE QUAKER0000009.49
7891025124849IOG.DANONE QUAKER0000003.59
7891025124856IOG.DANONE QUAKER0000003.59
7891025124863IOG.DANONE QUAKER0000003.59
7891025124870SOB.DANETTE CHOC.0000005.89
7891025124917SOB.DANETTE CREMO0000003.29
7891025124924SOB.DANETTE CREMO0000003.29
7891025125013BEB.LACTEA PROT.10000008.99
7891025125020LEITE FERM.ACTIVI0000003.89
7891025125037LEITE FERM.ACTIVI0000003.89
7891025125044LEITE FERM.ACTIVI0000014.99
7891025125051LEITE FERM.ACTIVI0000014.99
7891025501534REQUEIJAO POCOS D0000009.39
7891025699880REQUEIJAO DANONE 0000007.79
7891042101847CREME VEG.BECEL P0000026.59
7891075010130PICOLE KIBON FRUT0000007.90
7891075010161PICOLE KIBON FRUT0000007.90
7891075020023PICOLE KIBON FRUT0000008.59
7891075030091PICOLE KIBON CHIC0000008.89
7891075060210PICOLE KIBON TABL0000009.90
7891075080218PICOLE KIBON ESKI0000008.99
7891075081215MINI SORVETE KIBO0000014.90
7891075403192PICOLE KIBON BRIG0000010.98
7891075403215PICOLE KIBON MAGN0000016.90
7891080112836MARG.DELICIA SUPR0000007.99
7891080151286CREME VEG.BECEL P0000026.59
7891080400063MARG.DELICIA C/SA0000009.98
7891080400070MARG.DELICIA S/SA0000004.99
7891080400087MARG.DELICIA C/SA0000004.99
7891080400100MARG.DELICIA C/SA0000004.49
7891080400674GORDURA VEGETAL P0000015.79
7891097000126IOG.BATAVO C/FTAS0000009.49
7891097000133IOG.BATAVO GREGO 0000009.99
7891097000140IOG.BATAVO GREGO 0000009.99
7891097000171SOB.ELEGE CHOC.300000007.49
7891097000195IOG.BATAVO NATURA0000002.99
7891097000201IOG.BATAVO NATURA0000002.99
7891097000256IOG.BATAVO GREGO 0000002.59
7891097000270IOG.BATAVO GREGO 0000002.59
7891097000522SOB.BATAVO FLAN C0000007.99
7891097000607IOG.BATAVO PED.FT0000002.39
7891097000614IOG.BATAVO PED.FT0000002.39
7891097000621IOG.BATAVO PED.FT0000002.39
7891097000638IOG.BATAVO PED.FT0000002.39
7891097000713IOG.BATAVO P.ZERO0000002.79
7891097000720IOG.BATAVO P.ZERO0000002.79
7891097000775IOG.BATAVO P.ZERO0000002.79
7891097000799IOG.BATAVO NATURA0000007.59
7891097000829SOB.BATAVO NUV QU0000002.69
7891097000843SOB.BATAVO NUV QU0000002.69
7891097000850SOB.BATAVO NUV QU0000002.69
7891097000935CREME DE RICOTA P0000007.89
7891097000997CREME DE RICOTA P0000007.89
7891097001024LEITE PARMALAT IN0000004.69
7891097001031LEITE PARMALAT SE0000005.29
7891097001048LEITE PARMALAT DE0000004.99
7891097001062LEITE PARMALAT ZY0000005.29
7891097001253IOG.BATAVO P.ZERO0000009.99
7891097001260IOG.BATAVO P.ZERO0000009.49
7891097001338MANTEIGA PRESIDEN0000011.99
7891097001345MANTEIGA PRESIDEN0000011.99
7891097001352QUEIJO PRESIDENT 0000020.49
7891097001482LEITE PARMALAT ZY0000005.29
7891097001581REQUEIJAO POCOS D0000017.49
7891097010781IOG.BATAVO C/FTAS0000009.49
7891097010828IOG.BATAVO C/FTAS0000009.49
7891097011580P-SUISSE PATRULHA0000006.89
7891097012686MANTEIGA BATAVO C0000010.99
7891097012952BEB.LACTEA CHOCO 0000009.39
7891097013003BEB.LACTEA CHOCO 0000003.69
7891097013355BEB.LACTEA CHOCOM0000002.29
7891097015519MANTEIGA BATAVO S0000010.99
7891097017193LEITE FERM.PATRUL0000006.99
7891097018190LEITE BATAVO DESN0000005.09
7891097018220LEITE BATAVO SEMI0000005.09
7891097018251LEITE BATAVO INTE0000005.09
7891097086311IOG.BATAVO C/FTAS0000009.49
7891097089527P-SUISSE ELEGE BO0000006.59
7891097090004REQUEIJAO BATAVO 0000007.99
7891097090011REQUEIJAO BATAVO 0000007.99
7891097100994QUEIJO PRESIDENT 0000015.89
7891097101533IOG.BATAVO NATURA0000002.99
7891097101601IOG.BATAVO NATURA0000002.99
7891097101618IOG.BATAVO P.ZERO0000002.99
7891097101632IOG.BATAVO NATURA0000002.99
7891097101717BEB.LACTEA BATAVO0000005.29
7891097101854BEB.LACTEA BATAVO0000005.29
7891097101861BEB.LACTEA BATAVO0000005.29
7891097101892IOG.BATAVO P.ZERO0000002.99
7891097101977LEITE FERM.ELEGE 0000006.69
7891097101984LEITE FERM.ELEGE 0000006.69
7891097101991LEITE FERM.ELEGE 0000006.69
7891097102219IOG.BATAVO SURPRE0000004.29
7891097102387CREAM CHEESE PRES0000009.49
7891097102578MANTEIGA BATAVO C0000026.69
7891097102820SOB.BATAVO NUV QU0000010.39
7891097102851IOG.BATAVO MRGO 10000002.59
7891097102868IOG.BATAVO CEREAL0000002.59
7891097102875IOG.BATAVO GRAVIO0000002.59
7891097102936IOG.BATAVO JABUTI0000002.59
7891097103087SOB.BATAVO NUV QU0000010.39
7891097103094SOB.BATAVO NUV QU0000002.69
7891097103384IOG.BATAVO MRGO 10000013.99
7891097103391IOG.BATAVO CEREAL0000013.99
7891097103643IOG.BATAVO P.ZERO0000015.99
7891097103650IOG.BATAVO P.ZERO0000015.99
7891097103780IOG.BATAVO CAMADA0000002.69
7891097103841QUEIJO PRESIDENT 0000018.49
7891097103858QUEIJO PRATO PRES0000018.69
7891097104190IOG.BATAVO NATURA0000002.99
7891097104220CREAM CHEESE PRES0000016.49
7891097104237CREAM CHEESE PRES0000016.49
7891097104329BEB.LACTEA PROT.10000006.99
7891097104336BEB.LACTEA PROT.10000006.99
7891097104343BEB.LACTEA PROT.10000006.99
7891097104350CREME DE RICOTA P0000014.39
7891097104367CREME DE RICOTA P0000014.39
7891097104374IOG.BATAVO GRAVIO0000013.99
7891097104381IOG.BATAVO JABUTI0000013.99
7891097104404REQUEIJAO BATAVO 0000016.89
7891097104503MANTEIGA PRESIDEN0000020.99
7891097104534IOG.BATAVO BOB ES0000003.89
7891097104541IOG.BATAVO BOB ES0000003.99
7891097104619QUEIJO PRESIDENT 0000024.99
7891097104633IOG.BATAVO P.ZERO0000002.99
7891097104640IOG.BATAVO P.ZERO0000015.99
7891097104664IOG.BATAVO P.ZERO0000010.99
7891097104701QUEIJO PRATO PRES0000011.99
7891097104770IOG.BATAVO GREGO 0000009.99
7891097104794REQUEIJAO BATAVO 0000016.89
7891097104800REQUEIJAO POCOS D0000009.49
7891097104848IOG.BATAVO PROBIO0000009.99
7891097104855IOG.BATAVO PROBIO0000009.99
7891097104862IOG.BATAVO PROBIO0000002.59
7891097104879IOG.BATAVO PROBIO0000002.99
7891097104886IOG.BATAVO PROBIO0000002.99
7891097104893IOG.BATAVO PROBIO0000002.99
7891097104947LEITE BATAVO PAST0000005.29
7891097105203IOG.BATAVO BOB ES0000003.99
7891097105579SOB.BATAVO NUV QU0000002.69
7891097105654SOB.BATAVO NUV QU0000002.69
7891097105678IOG.BATAVO GREGO 0000012.49
7891097105685SOB.BATAVO NUV QU0000002.69
7891097105739QUEIJO GALBANI MU0000010.89
7891097105746QUEIJO GALBANI MU0000020.79
7891097105869QUEIJO RALADO GAL0000006.99
7891097105876QUEIJO RALADO GAL0000012.99
7891097105883QUEIJO GALBANI PA0000026.99
7891097105913MANTEIGA GALBANI 0000013.18
7891097105920MANTEIGA GALBANI 0000013.35
7891097105944MANTEIGA GALBANI 0000013.18
7891097105951MANTEIGA GALBANI 0000009.89
7891097105975CREME DE RICOTA G0000008.49
7891097105982CREME DE RICOTA G0000008.49
7891097105999CREME DE RICOTA G0000014.58
7891097106002CREME DE RICOTA G0000014.58
7891097106040MANTEIGA PRESIDEN0000014.25
7891097106057IOG.ELEGE MRGO/VI0000007.38
7891097106095QUEIJO PRESIDENT 0000010.59
7891097106101IOG.BATAVO P.ZERO0000002.79
7891097106118BEB.LACTEA PROT.10000006.99
7891097106125BEB.LACTEA PROT.10000006.99
7891097106132BEB.LACTEA PROT.10000006.99
7891097106156LEITE FERM.ELEGE 0000012.99
7891097106170P-SUISSE ELEGE BO0000006.59
7891097106248IOG.BATAVO P.ZERO0000012.89
7891097106255LEITE BATAVO PENS0000005.29
7891097106347SOB.BATAVO CREAMY0000002.49
7891097106422IOG.BATAVO P.ZERO0000015.99
7891097106552QUEIJO GALBANI PA0000029.99
7891097106590LEITE FERM.BATAVI0000008.49
7891097106613LEITE FERM.BATAVI0000008.49
7891097106637LEITE FERM.BATAVI0000008.49
7891097106750IOG.ELEGE BOB ESP0000002.79
7891097106767IOG.ELEGE BOB ESP0000002.79
7891097106842IOG.BATAVO PROBIO0000013.99
7891097106903P-SUISSE BATAVINH0000007.49
7891097106989SOB.BATAVO PUDIM 0000004.35
7891097107016IOG.BATAVO PROBIO0000013.99
7891097107030IOG.BATAVO PROBIO0000013.99
7891097107238REQUEIJAO GALBANI0000017.58
7891143001206QUEIJO POLENGHI C0000016.99
7891143015937QUEIJO POLENGUINH0000003.99
7891143017399QUEIJO POLENGUINH0000015.35
7891143017405QUEIJO POLENGUINH0000015.49
7891143017436QUEIJO POLENGUINH0000007.99
7891143017443QUEIJO POLENGUINH0000007.99
7891143018921QUEIJO POLENGHINH0000007.99
7891143019072QUEIJO PRATO POLE0000017.49
7891143019669CREAM CHEESE POLE0000021.79
7891143019676CREAM CHEESE POLE0000021.79
7891143020030MOLHO POLENGHI CH0000015.48
7891143020795QUEIJO POLENGHINH0000008.49
7891150007680PICOLE KIBON FRUT0000005.99
7891150023093PICOLE KIBON MAGN0000016.90
7891150024571SORVETE KIBON CRE0000039.90
7891150041042PICOLE KIBON MAGN0000017.90
7891150050235SORVETE KIBON CRE0000030.90
7891150050242SORVETE KIBON CRE0000030.90
7891150051973SORVETE KIBON COR0000010.90
7891150055858SORVETE KIBON CRE0000030.90
7891150055957SORVETE KIBON 4 E0000039.90
7891150061033SORVETE KIBON SNI0000035.90
7891150061040SORVETE KIBON OVO0000035.90
7891150061057SORVETE KIBON TAB0000035.90
7891150062115SORVETE KIBON CRE0000039.90
7891150064904PICOLE KIBON MAGN0000017.90
7891150065925SORVETE KIBON COR0000012.90
7891150066175MINI SORVETE KIBO0000021.90
7891150068315SORVETE KIBON SUN0000042.90
7891150068537SORVETE KIBON UNI0000012.90
7891150068544PICOLE KIBON CHIC0000009.49
7891150073562SORVETE KIBON CHI0000038.90
7891150074026SORVETE KIBON SUN0000042.90
7891150077263SORVETE KIBON CRE0000030.90
7891150081963PICOLE KIBON MAGN0000017.90
7891150087316SORVETE GELARTIER0000044.90
7891150087323SORVETE GELARTIER0000044.90
7891150087330SORVETE GELARTIER0000044.90
7891150088627SORVETE KIBON COC0000056.90
7891150089051PICOLE KIBON NUTA0000010.90
7891150091290SORVETE KIBON COR0000012.90
7891150094475SORVETE KIBON CHI0000035.90
7891150094833MINI SORVETE KIBO0000014.90
7891150094840MINI SORVETE KIBO0000014.90
7891150096516MINI SORVETE KIBO0000029.90
7891150099548MINI SORVETE KIBO0000014.90
7891150100817SORVETE KIBON CHI0000029.90
7891150100824MINI SORVETE KIBO0000029.90
7891150100831MINI SORVETE KIBO0000029.90
7891150100848MINI SORVETE KIBO0000043.90
7891150100855MINI SORVETE KIBO0000043.90
7891156001040LEITE FERM.YAKULT0000011.89
7891156002030LEITE FERM.YAKULT0000013.99
7891156003068LEITE FERM.YAKULT0000014.79
7891156011018SUPLEMENTO HILINE0000005.99
7891156020218SUCO YAKULT MACA 0000004.49
7891156070015SOB.YAKULT SOFYL 0000002.85
7891156072019SOB.YAKULT SOFYL 0000002.85
7891156075010SOB.YAKULT SOFYL 0000002.85
7891156076178SUPLEMENTO TAFFMA0000005.49
7891156076185SUPLEMENTO HILINE0000005.99
7891164004248LINGUICA AURORA T0000023.49
7891164004255LINGUICA AURORA P0000020.99
7891164005412SALSICHA AURORA H0000009.98
7891164007010BANHA AURORA 1KG 0000011.69
7891164007157BANHA AURORA 450G0000006.07
7891164007201LOMBO SUINO AUROR0000008.99
7891164014759LOMBO SUINO AUROR0000009.65
7891164026011PIZZA AURORA MUSS0000014.99
7891164026028PIZZA AURORA CALA0000014.99
7891164026066PIZZA AURORA FGO/0000014.99
7891164026271PIZZA AURORA LOMB0000014.79
7891164026417PIZZA AURORA MUSS0000014.99
7891164026424PIZZA AURORA CALA0000014.99
7891164026462PIZZA AURORA FGO/0000014.99
7891164026530LASANHA AURORA BO0000011.99
7891164026943LANCHE AURORA FAR0000008.39
7891164026950LANCHE AURORA FAR0000008.39
7891164026967LANCHE AURORA FAR0000008.39
7891164026974LANCHE AURORA FAR0000008.39
7891164028770CHORIPAN AURORA L0000022.19
7891164028787PASTEL AURORA APE0000019.39
7891164110635EMPANADO AURORA A0000007.99
7891164110642TIRINHAS DE FRANG0000007.29
7891164110673ISCAS DE FRANGO A0000009.99
7891164110697EMPANADO AURORA A0000007.99
7891164110703EMPANADO AURORA A0000020.89
7891164110727EMPANADO AURORA A0000007.99
7891164110772TIRINHAS DE FRANG0000019.89
7891164116835PEITO FRANGO AURO0000008.99
7891164165178SALAME ALEGRA HAM0000010.49
7891164165451LINGUICA SUINA AL0000021.35
7891164165468PRESUNTO ALEGRA C0000009.29
7891164165888LINGUICA SUINA AL0000017.79
7891164165987LINGUICA ALEGRA C0000012.99
7891164166151LINGUICA ALEGRA P0000012.99
7891164166250COPA ALEGRA FAT.10000011.79
7891164166441SALAME ALEGRA ITA0000011.05
7891164166540LINGUICA ALEGRA C0000054.25
7891164166786LINGUICA SUINA AL0000013.89
7891193010012PAO BISNAGUINHA S0000008.59
7891193010074PAO DE FORMA SEVE0000010.69
7891193010081PAO DE FORMA SEVE0000009.99
7891193010203PAO DE FORMA SEVE0000009.99
7891193012030PAO SEVEN BOYS CA0000016.79
7891203010056PAO DE FORMA PANC0000010.59
7891203010209PAO DE MILHO PANC0000011.99
7891203010506PAO SOVADO PANCO 0000014.39
7891203010568PAO PANCO EGG SPO0000012.49
7891203010605PAO BISNAGUINHA P0000007.89
7891203011053PAO PANCO SOVADIN0000008.69
7891203055279BOLO PANCO BEBE R0000012.98
7891203056627MINI BOLO PANQUIN0000003.79
7891203057778MINI BOLO PANQUIN0000003.79
7891203058867PAO PANCO INTEG.10000014.19
7891203059314BOLO PANCO LJA 300000009.99
7891203059321BOLO PANCO ABACAX0000009.99
7891203059338BOLO PANCO COCO 30000009.99
7891203059345BOLO PANCO CHOCOB0000012.45
7891203059352BOLO PANCO CHOC.30000009.99
7891203063366PAO BISNAGUINHA P0000010.29
7891203069719PAO BISNAGUINHA P0000010.29
7891203069795PAO PANCO INTEG.10000014.19
7891515014520LINGUICA PERDIGAO0000033.29
7891515220983SALSICHA PERDIGAO0000087.90
7891515323691HAMBURGUER PERDIG0000023.49
7891515410315MARG.CLAYBOM C/SA0000010.89
7891515428617MORTADELA PERDIGA0000006.49
7891515429966MORTADELA PERDIGA0000006.49
7891515430122FILEZINHO PERDIGA0000022.79
7891515430139COXINHA DA ASA PE0000018.99
7891515430153MORTADELA PERDIGA0000006.49
7891515431587MORTADELA SADIA D0000007.99
7891515432652PRESUNTO SADIA CO0000012.98
7891515433703PEITO DE PERU SAD0000018.98
7891515434311MORTADELA PERDIGA0000007.98
7891515435134APRESUNTADO PERDI0000006.98
7891515437015SALAMITOS POCKET 0000003.99
7891515439118ISCAS DE FRANGO S0000017.59
7891515443528FILE DE FRANGO PE0000027.89
7891515472771SOBRECOXA PERDIGA0000018.90
7891515474126STEAK DE FRANGO P0000002.19
7891515474133PEITO FRANGO PERD0000004.99
7891515474737STEAK DE FRANGO S0000002.39
7891515475642LASANHA SADIA FGO0000012.99
7891515475680LASANHA SADIA 4 Q0000012.99
7891515475697LASANHA SADIA PRE0000012.99
7891515475703LASANHA SADIA BOL0000012.99
7891515476212LASANHA SADIA P.P0000012.99
7891515476229LASANHA SADIA CAL0000012.99
7891515479541SALAMITOS SADIA L0000003.99
7891515484040PRESUNTO PERDIGAO0000009.49
7891515485528MINI CHICKEN PERD0000009.99
7891515485535MINI CHICKEN PERD0000009.99
7891515486372COXINHA DA ASA PE0000016.99
7891515486846BIG NUGGETS SADIA0000023.59
7891515490218SALAME PERDIGAO F0000012.99
7891515490430LASANHA PERDIGAO 0000010.99
7891515493042LINGUICA SADIA FG0000019.49
7891515496234LASANHA PERDIGAO 0000010.99
7891515496241LASANHA PERDIGAO 0000015.98
7891515496357LASANHA PERDIGAO 0000010.99
7891515503659FILEZINHO SASSAMI0000020.69
7891515515317DRUMETTE SADIA FG0000024.99
7891515515324FILEZINHO SASSAMI0000031.69
7891515520632MARG.QUALY VITA C0000007.59
7891515520656MARG.QUALY VITA S0000007.59
7891515522384PEITO FRANGO SADI0000020.99
7891515524630LINGUICA SADIA PO0000019.99
7891515531676SALAME SADIA PEPP0000014.79
7891515532918PIZZA PERDIGAO BR0000014.98
7891515532925PIZZA PERDIGAO NA0000014.98
7891515533014PIZZA PERDIGAO CA0000014.98
7891515534110COXINHA DA ASA SA0000021.99
7891515537531MARG.QUALY POTE C0000004.79
7891515539153MORTADELA PERDIGA0000007.98
7891515539177MORTADELA PERDIGA0000007.98
7891515544041MINI CHICKEN PERD0000024.99
7891515545413TORTA SADIA VEG&T0000020.69
7891515546847BACON PERDIGAO FA0000020.99
7891515547554BATATA SADIA PALI0000031.90
7891515548889MARG.CLAYBOM MANT0000006.49
7891515549527SALAMITOS SADIA S0000003.99
7891515551551MIX VEGETAIS SADI0000006.99
7891515554224HAMBURGUER SADIA 0000001.25
7891515555245CREME VEG.BECEL O0000006.49
7891515555252CREME VEG.BECEL O0000009.98
7891515555269CREME VEG.BECEL O0000006.49
7891515555337CREME VEG.BECEL O0000009.98
7891515555344CREME VEG.BECEL M0000009.98
7891515555641PIZZA PERDIGAO BR0000014.98
7891515555917PIZZA PERDIGAO CA0000014.98
7891515555924PIZZA PERDIGAO NA0000014.98
7891515556327HOT POCKET SADIA 0000007.99
7891515556334HOT POCKET SADIA 0000007.99
7891515556341HOT POCKET SADIA 0000007.99
7891515562236CREME VEG.BECEL P0000026.59
7891515562854COXINHA DA ASA SA0000022.59
7891515572518EMPANADISSIMO SAD0000027.89
7891515574857EMPANADISSIMO SAD0000026.79
7891515575533ALMONDEGA SADIA B0000033.69
7891515575915KIBE SADIA 900G  0000032.59
7891515576929TORTA SADIA VEG&T0000023.99
7891515586348MARG.QUALY VEGETA0000004.99
7891515592820CORACAO DE FRANGO0000020.59
7891515593865MARG.SADIA SOFITE0000204.89
7891515594312LINGUICA SADIA CH0000016.45
7891515594411LINGUICA SADIA TO0000019.89
7891515600617MACARRAO HOT BOWL0000009.99
7891515600624MACARRAO HOT BOWL0000009.99
7891515601737MACARRAO HOT BOWL0000009.99
7891515605704MAC'N CHEESE SADI0000009.49
7891515605773PENNE AO MOLHO PA0000009.99
7891515605803FETTUCCINE PERDIG0000009.99
7891515606121BACON SADIA CUBOS0000005.89
7891515606312MAC'N CHEESE SADI0000009.49
7891515606329MAC'N CHEESE SADI0000009.49
7891515606428PENNE AO SUGO PER0000009.99
7891515606435FETTUCCINE PERDIG0000009.99
7891515606824LINGUICA PERDIGAO0000007.98
7891515609283MANDIOCA SADIA CO0000019.59
7891515618322EMPANADO SADIA EM0000013.79
7891515620899MAC'N CHEESE SADI0000009.49
7891515620981LINGUICA SADIA CA0000012.98
7891515621063PIZZA PERDIGAO FG0000014.98
7891515622633PRESUNTO SADIA MI0000008.98
7891515623524POP NUGGETS SADIA0000010.39
7891515625153TORTA SADIA M.DAI0000039.90
7891515627201HAMBURGUER PERDIG0000004.99
7891515627416HAMBURGUER PERDIG0000004.99
7891515627478EMPANADO SADIA CH0000010.79
7891515628215HAMBURGUER SADIA 0000003.99
7891515630317FILEZINHO SADIA F0000018.59
7891515631024LINGUICA PERDIGAO0000025.55
7891515742034SALSICHA PERDIGAO0000012.79
7891515742065SALSICHA PERDIGAO0000013.49
7891515742089SALSICHA PERDIGAO0000012.89
7891515775636MORTADELA PERDIGA0000005.49
7891515786298BIG CHICKEN PERDI0000028.90
7891515900779CREME VEG.BECEL P0000026.59
7891515901059MARG.CLAYBOM C/SA0000005.99
7891515925307IOG.BATAVO NATURA0000002.99
7891515945206SALSICHA PERDIGAO0000068.99
7891515969509COXINHA DA ASA PE0000015.99
7891515977412CORACAO DE FRANGO0000032.69
7891515977511LINGUICA PERDIGAO0000013.98
7891515979355MARG.CLAYBOM S/SA0000005.99
7891515989408HAMBURGUER PERDIG0000001.29
7891527000559COXA C/SCOXA COPA0000020.89
7891527000795FILEZINHO SASSAMI0000020.59
7891527000818CORACAO DE FRANGO0000041.90
7891527002775COXA C/SCOXA COPA0000026.99
7891527002782FRANGO PASSARINHO0000012.49
7891527005387SALSICHA COPACOL 0000009.89
7891527019032SOBRECOXA COPACOL0000020.19
7891527019070FILEZINHO SASSAMI0000022.69
7891527019131MEIO DA ASA COPAC0000033.39
7891527019179COXINHA DA ASA CO0000022.55
7891527019193FRANGO PASSARINHO0000017.98
7891527031676PETISCO DE FRANGO0000017.87
7891527039351FILE DE TILAPIA C0000026.90
7891527044577SALSICHA COPACOL 0000010.49
7891527044874MORTADELA COPACOL0000012.79
7891527044881MORTADELA COPACOL0000012.79
7891527044935PEITO FRANGO COPA0000024.89
7891527054125STEAK DE PEIXE CO0000002.99
7891527054873SALSICHA COPACOL 0000009.89
7891527055078FILE COPACOL MERL0000056.90
7891527055139POSTA DE CACAO CO0000043.90
7891527055191CAMARAO COPACOL 70000062.90
7891527055870SALSICHA COPACOL 0000009.89
7891527057911COXINHA DA ASA CO0000019.99
7891527057928MEIO DA ASA COPAC0000032.99
7891527059878BATATA COPACOL PA0000008.39
7891527062991FILE DE TILAPIA C0000042.90
7891527063721FILE DE PEITO COP0000023.99
7891527063783FILEZINHO COPACOL0000032.88
7891527064339COXA C/SCOXA COPA0000020.99
7891527064391SALSICHAO COPACOL0000007.99
7891527064438ISCAS DE FILE DE 0000029.90
7891527064650MILHO VERDE COPAC0000009.79
7891527064674SELETA DE LEGUMES0000007.79
7891527064681ERVILHA COPACOL C0000007.49
7891527064704MILHO VERDE COPAC0000031.79
7891527064735ERVILHA COPACOL C0000022.79
7891527064742SELETA DE LEGUMES0000024.99
7891527064889TIRINHAS DE TILAP0000012.90
7891527064902TIRINHAS DE FRANG0000007.99
7891527064919STEAK DE FRANGO C0000002.19
7891527064926STEAK DE PEIXE CO0000002.99
7891527065398FILE DE TILAPIA C0000037.49
7891527065756ANEIS DE CEBOLA C0000016.59
7891527065916ANEIS DE CEBOLA C0000039.99
7891527066135LINGUICA COPACOL 0000018.99
7891527066142LINGUICA COPACOL 0000018.49
7891527066265FILE DE PEITO COP0000015.97
7891527066319PAO DE ALHO COPAC0000013.49
7891527066333COXINHA DA ASA CO0000013.99
7891527066463SOBRECOXA COPACOL0000012.99
7891527066494FILE DE PEITO COP0000016.99
7891527066579FILEZINHO SASSAMI0000016.99
7891527066593COXA C/SCOXA S/O 0000015.59
7891527066630FIGADO DE FRANGO 0000007.89
7891527066647MOELA DE FRANGO C0000009.99
7891527067842FILE DE PEITO COP0000023.89
7891527067965FILE DE PEITO COP0000023.79
7891527068092PETISCO DE TILAPI0000021.90
7891527068115LASANHA COPACOL B0000011.59
7891527068122LASANHA COPACOL 40000011.59
7891527068962PAO DE QUEIJO COP0000021.79
7891527068979MORTADELA COPACOL0000005.98
7891527068986MORTADELA COPACOL0000005.98
7891527069020MORTADELA COPACOL0000006.29
7891527069044MORTADELA COPACOL0000007.59
7891527069228CAMARAO COPACOL V0000049.90
7891527069310PEITO PASSARINHO 0000017.89
7891527069334COXA C/SCOXA COPA0000021.79
7891527069365POSTA DE TILAPIA 0000021.90
7891527069389CORACAO DE FRANGO0000021.79
7891527069969COSTELINHA DE TIL0000021.90
7891527069976MIX DE VEGETAIS C0000006.99
7891527070453LINGUICA COPACOL 0000011.49
7891527070866BATATA COPACOL PA0000029.79
7891527070941BATATA COPACOL PA0000018.79
7891527071498CAMARAO COPACOL V0000074.90
7891527071566LOMBO DE SALMAO C0000072.90
7891527071603CHICKENGGETS COPA0000025.99
7891527071610CHICKENGGETS COPA0000007.99
7891527071627HAMBURGUER COPACO0000001.49
7891527071641LINGUICA COPACOL 0000010.90
7891527071665ISCAS DE FRANGO C0000038.99
7891527071672FILE COXA C/SCOXA0000035.99
7891527072303FILE DE PEITO COP0000009.99
7891527072471LINGUICA COPACOL 0000019.78
7891527072488LINGUICA COPACOL 0000018.09
7891527072495LINGUICA COPACOL 0000018.35
7891527072501LINGUICA COPACOL 0000018.09
7891527962253COXINHA DA ASA CO0000016.69
7891527962277MEIO DA ASA COPAC0000025.89
7891527962314FILE DE PEITO COP0000022.99
7891527962338FILEZINHO COPACOL0000017.98
7891527962352COXA C/SCOXA COPA0000011.99
7891527962376FRANGO PASSARINHO0000012.49
7891962000015MINI PANETTONE BA0000002.99
7891962000725BOLINHO BAUDUCCO 0000001.99
7891962007199CHOCOTTONE BAUDUC0000028.45
7891962012735CHOCOTTONE BAUDUC0000028.45
7891962015484BOLINHO BAUDUCCO 0000002.35
7891962015620BOLINHO BAUDUCCO 0000001.99
7891962018546PANETTONE TOMMY F0000006.49
7891962018553PANETTONE TOMMY G0000006.49
7891962027388PANETTONE BAUDUCC0000019.99
7891962027418PANETTONE VISCONT0000009.99
7891962028965BOLINHO BAUDUCCO 0000001.38
7891962031170BOLINHO BAUDUCCO 0000001.99
7891962031200CHOCOTTONE BAUDUC0000038.77
7891962042725PAO DE MEL BAUDUC0000001.99
7891962051338PAO DE FORMA VISC0000005.49
7891962051345PAO DE FORMA VISC0000005.99
7891962051383BOLINHO BAUDUCCO 0000001.99
7891962051574BOLINHO BAUDUCCO 0000001.99
7891962056098BISC.BAUDUCCO REC0000006.15
7891962057095CHOCOTTONE BAUDUC0000038.77
7891962057613PAO DE FORMA BAUD0000007.69
7891962057620PAO DE FORMA BAUD0000008.79
7891962057637PAO DE FORMA BAUD0000011.79
7891962057668MINI CHOCOTTONE B0000004.49
7891962059938CHOCOLOMBA BAUDUC0000012.09
7891962061689PANETTONE BAUDUCC0000018.99
7891962063874PAO BISNAGUINHA B0000007.99
7891962064048PAO DE FORMA BAUD0000006.49
7891962064055PAO DE FORMA BAUD0000007.49
7891962064833PANETTONE BAUDUCC0000018.99
7891962064857PANETTONE BAUDUCC0000021.98
7891962066844BOLO BAUDUCCO LJA0000009.99
7891962066851BOLO BAUDUCCO CHO0000009.99
7891962066868BOLO BAUDUCCO CEN0000009.99
7891962067278PAO DE FORMA BAUD0000008.90
7891962067346BOLINHO BAUDUCCO 0000001.99
7891962067889BOLINHO BAUDUCCO 0000001.99
7891962069913PAO BAUDUCCO HOT 0000007.89
7891962069920PAO P/HAMBURGUER 0000008.19
7891962070117COLOMBA VISCONTI 0000018.99
7891962070124COLOMBA VISCONTI 0000018.99
7891962071381CHOCOTTONE BAUDUC0000027.99
7891962071398CHOCOTTONE BAUDUC0000026.99
7891962071404CHOCOTTONE BAUDUC0000026.99
7891962071879PAO BISNAGUINHA V0000007.19
7891962072623MINI PANETTONE BA0000002.99
7891962073767CESTA DE NATAL BA0000057.55
7891962074351COLOMBA BAUDUCCO 0000023.99
7891962074368CHOCOLOMBA BAUDUC0000023.99
7891962074375CHOCOLOMBA BAUDUC0000032.49
7891962074382CHOCOLOMBA BAUDUC0000032.49
7891962074665BOLINHO BAUDUCCO 0000001.99
7891962074689CHOCOLOMBA BAUDUC0000014.99
7891962074795MINI COLOMBA BAUD0000006.99
7891962074801MINI CHOCOLOMBA B0000007.99
7891962076911PANETTONE BAUDUCC0000008.99
7891962077321PAO BRIOCHINE BAU0000008.49
7891962077697COLOMBA BAUDUCCO 0000038.99
7891962077703CHOCOLOMBA BAUDUC0000038.99
7891999004116QUEIJO RALADO VIG0000034.29
7891999004826QUEIJO VIGOR PARM0000034.69
7891999005830QUEIJO VIGOR BRIE0000022.49
7891999006264QUEIJO VIGOR CAME0000028.49
7891999006271QUEIJO VIGOR GORG0000018.99
7891999006646FONDUE DE CHOCOLA0000037.78
7891999007735QUEIJO VIGOR EMME0000030.59
7891999008404QUEIJO VIGOR GRUY0000027.79
7891999008923QUEIJO VIGOR GOUD0000031.79
7891999010995MARG.VIGOR MANTEI0000006.99
7891999011039MARG.VIGOR MANTEI0000006.99
7891999011435IOG.VIGOR MRGO 1.0000015.49
7891999011442IOG.VIGOR VITAMIN0000015.49
7891999014092QUEIJO FAIXA AZUL0000032.79
7891999014153SOB.VIGOR CHOC.180000004.99
7891999014160SOB.VIGOR CHOC.BC0000004.99
7891999014528QUEIJO FAIXA AZUL0000058.90
7891999014887IOG.VIGOR NATURAL0000004.69
7891999014894IOG.VIGOR NATURAL0000004.69
7891999015228CHANTILLY VIGOR S0000034.99
7891999144461REQUEIJAO VIGOR C0000006.99
7891999144485REQUEIJAO VIGOR T0000006.99
7891999862501COMP.ALIM.VIGOR M0000024.49
7891999904805LEITE FERM.VIGOR 0000006.49
7891999960054QUEIJO RALADO FAI0000007.99
7891999970053QUEIJO RALADO VIG0000006.49
7891999970107QUEIJO RALADO VIG0000011.49
7892857020279UVA ITALIA 500G  0000014.95
7892857020316UVA ROSADA/NIAGAR0000007.99
7892857020323UVA RUBI 500G    0000007.88
7892857020927ENDIVIA BENASSI 40000018.85
7892857021085CEREJA IMP.250G  0000015.99
7892857021184CEBOLA 1KG PCT   0000004.99
7892857029982AMEIXA 500G BDJA 0000007.95
7892857033347MIRTILO BDJA     0000013.99
7892857033354FRAMBOESA 100G BD0000018.99
7892857033361AMORA 100G BDJA  0000012.99
7892857060176CAJU BDJA        0000034.99
7892857083632MACA 850G PCT    0000005.99
7892999861204AL.BASE MANT/MARG0000012.79
7892999862201AL.BASE MANTEIGA/0000012.79
7893000004757PATE SADIA PRESUN0000004.49
7893000012509TORTA SADIA FGO/R0000020.90
7893000012547TORTA SADIA CAIPI0000020.90
7893000012578TORTA SADIA PALMI0000020.90
7893000025653PATE SADIA P.PERU0000004.29
7893000027701HOT POCKET SADIA 0000007.99
7893000027718HOT POCKET SADIA 0000007.99
7893000043213HOT POCKET SADIA 0000007.99
7893000043220HOT POCKET SADIA 0000007.99
7893000052888ESCONDIDINHO DE C0000022.90
7893000052895ESCONDIDINHO DE F0000022.90
7893000069374STROGONOFF DE FRA0000023.89
7893000069732PIZZA SADIA MARGU0000017.98
7893000073098ISCAS DE FRANGO S0000017.59
7893000073142LASANHA SADIA FAM0000025.69
7893000073166LASANHA SADIA FAM0000025.49
7893000079298MARG.QUALY C/SAL 0000015.98
7893000081598SOBRECOXA SADIA F0000015.99
7893000084360MARG.QUALY AERA C0000007.79
7893000091641BACON SADIA FAT.20000021.99
7893000135529SALSICHA SADIA HO0000013.98
7893000289758SALAME SADIA HAMB0000013.98
7893000290099PRESUNTO SADIA PA0000024.90
7893000290259SALAME SADIA ITAL0000013.98
7893000383005MARG.QUALY S/SAL 0000005.95
7893000387096HAMBURGUER SADIA 0000023.99
7893000394117MARG.QUALY C/SAL 0000004.79
7893000394209MARG.QUALY C/SAL 0000005.95
7893000486317HAMBURGUER SADIA 0000023.99
7893000488526FRANGO PASSARINHO0000018.89
7893000488601FRANGO PASSARINHO0000018.79
7893000488878COXINHA DA ASA SA0000020.99
7893000488953MEIO DA ASA SADIA0000029.99
7893000492394FILE DE PEITO SAD0000022.69
7893000502888MARG.QUALY ZERO L0000008.49
7893000516083FILEZINHO SADIA C0000026.99
7893000631939PIZZA SADIA MUSS.0000017.98
7893000632073PIZZA SADIA CALAB0000017.98
7893000632233PIZZA SADIA 4 QJO0000017.98
7893000671997PIZZA SADIA LOMBO0000017.98
7893000672109PIZZA SADIA FGO/R0000017.98
7893000674073LASANHA SADIA 4 Q0000012.69
7893000674233LASANHA SADIA BOL0000012.99
7893000779259TORTA SADIA M.DAI0000039.90
7893000902633YAKISSOBA SADIA 60000026.69
7893000949270NUGGETS SADIA FGO0000010.99
7893000949355NUGGETS SADIA FGO0000010.99
7893000949430NUGGETS SADIA FGO0000010.99
7893000969032TORTA SADIA M.DAI0000039.90
7893333325000CREAM CHEESE PHIL0000009.99
7893590410204PURURUCA FL COSTE0000015.69
7893590410235PURURUCA FL LIMAO0000015.49
7893590410242PURURUCA FL C/PIM0000015.49
7893590410259PURURUCA FL TRAD.0000015.49
7893590410358PURURUCA FL BACON0000015.49
7893595789213UVA VERMELHA S/SE0000008.98
7893595789220UVA PRETA S/SEMEN0000008.98
7893595789237UVA BRANCA S/SEME0000011.49
7893595789268UVA BRANCA S/SEME0000011.49
7893595789299UVA PRETA S/SEMEN0000008.98
7893596275654CEBOLINHA GASPARI0000004.78
7894321242521BEB.LACTEA TODDYN0000002.59
7894321722016BEB.LACTEA TODDYN0000002.59
7894900083002BEB.AMENDOA ADES 0000017.69
7894900083507BEB.AMENDOA ADES 0000017.59
7894900084504BEB.ADES COCO 1L 0000017.59
7894900086003BEB.ADES SOJA ORI0000008.59
7894900086027BEB.ADES SOJA ZER0000008.99
7894900087505BEB.ADES AVEIA 1L0000013.99
7894900088007BEB.ADES AVEIA CH0000013.99
7894904002450HAMBURGUER SEARA 0000021.59
7894904003495STEAK DE FRANGO S0000002.19
7894904005482SALSICHA SEARA HO0000011.99
7894904005741HAMBURGUER SEARA 0000023.05
7894904005789FILE DE FRANGO SE0000024.89
7894904005833SALSICHA SEARA FG0000011.99
7894904006205BACON SEARA GOURM0000012.39
7894904009169MORTADELA SEARA F0000007.59
7894904009862LINGUICA SEARA CA0000012.99
7894904009893SALSICHA SEARA LO0000010.99
7894904015108FILE DE PEITO SEA0000026.59
7894904018161CORACAO DE FRANGO0000031.99
7894904070565COSTELA SUINA SEA0000071.90
7894904070596LASANHA SEARA FGO0000012.98
7894904070602LASANHA SEARA CAL0000012.98
7894904072439LASANHA SEARA PRE0000012.98
7894904082704LASANHA SEARA BOL0000012.98
7894904082728LASANHA SEARA 4 Q0000012.98
7894904091102LASANHA SEARA GOU0000034.99
7894904095827FILE DE PEITO SEA0000025.79
7894904095933COXINHA DA ASA SE0000013.59
7894904097234HAMBURGUER SEARA 0000032.89
7894904097241LINGUICA SEARA GO0000010.99
7894904098293LINGUICA SEARA GO0000018.59
7894904197699FRANGO PASSARINHO0000016.49
7894904197712SOBRECOXA SEARA C0000014.99
7894904197729COXA SEARA CONG.10000014.49
7894904197736FILEZINHO SEARA C0000025.59
7894904197743COXINHA DA ASA SE0000018.99
7894904201808LINGUICA SEARA GO0000019.99
7894904201815LINGUICA SEARA GO0000026.27
7894904201822LINGUICA SEARA GO0000018.69
7894904202409SALAME SEARA GOUR0000014.99
7894904203420BACON SEARA GOURM0000017.98
7894904204489SELETA DE LEGUMES0000024.69
7894904204496SELETA MISTA SEAR0000009.08
7894904204557LINGUICA SEARA FI0000003.99
7894904211210SALAME SEARA GOUR0000012.98
7894904211234SALAME SEARA GOUR0000012.98
7894904215942HOT HIT SEARA CHE0000007.89
7894904219070MEIO DA ASA SEARA0000031.99
7894904219636EMPANADO DE SOJA 0000019.98
7894904220489COPA SEARA GOURME0000014.99
7894904222032HAMBURGUER SEARA 0000031.59
7894904233380PIZZA SEARA GOURM0000031.79
7894904233397PIZZA SEARA GOURM0000031.79
7894904235933MORTADELA SEARA S0000011.99
7894904235940MORTADELA SEARA C0000012.89
7894904243969MAC&CHEESE SEARA 0000010.98
7894904245871MAC&CHEESE SEARA 0000010.98
7894904246922PERNIL SUINO INCR0000027.79
7894904247042ISCAS DE PEIXE IN0000023.38
7894904254965FILE DE SALMAO SE0000079.90
7894904255030FILE DE TILAPIA S0000032.90
7894904255177LINGUICA SEARA GO0000018.69
7894904256570CORACAO DE FRANGO0000029.90
7894904259243SALSICHA VEG.INCR0000022.99
7894904259953PIZZA SEARA GOURM0000030.99
7894904259960PIZZA SEARA GOURM0000033.79
7894904261512BOLINHO DE BACALH0000035.99
7894904261567LOMBO DE BACALHAU0000149.00
7894904265817LEVISSIMO SEARA F0000010.99
7894904268511PRESUNTO SEARA FA0000007.98
7894904268528APRESUNTADO SEARA0000005.99
7894904268535PEITO FRANGO SEAR0000013.59
7894904268542MORTADELA SEARA T0000007.99
7894904268559PEITO DE PERU SEA0000013.89
7894904268573MORTADELA SEARA G0000006.99
7894904270071PAO DE QUEIJO SEA0000014.99
7894904271191GORDURA VEGETAL P0000015.79
7894904271498MARG.CREMOSY C/SA0000005.39
7894904271511MARG.DELICIA C/SA0000009.98
7894904271528MARG.DELICIA C/SA0000004.99
7894904271535MARG.DELICIA C/SA0000004.49
7894904271566MARG.DELICIA S/SA0000004.99
7894904271573MARG.DELICIA SUPR0000007.99
7894904272396JERKED SUINO SEAR0000011.85
7894904272938MARG.DELICIA TOQU0000007.99
7894904272952MARG.DELICIA TOQU0000008.59
7894904275977PIZZA SEARA LEVIS0000014.99
7894904276066EMPANADO SEARA LE0000004.99
7894904276103LASANHA VEG.INCRI0000027.99
7894904277964HAMBURGUER VEG.IN0000022.99
7894904277995ALMONDEGA VEG.INC0000021.99
7894904279982EMPANADO VEG.INCR0000016.88
7894904280001EMPANADO SEARA PR0000004.99
7894904280254PIZZA VEG.INCRIVE0000039.90
7894904280261PIZZA VEG.INCRIVE0000039.90
7894904281015MARG.DELICIA CULI0000007.49
7894904281510LINGUICA SEARA GO0000018.88
7894904281718BOLINHO DE PERNIL0000033.09
7894904281954MEDALHAO DE FIEST0000026.79
7894904283361BIG TEKITOS SEARA0000028.79
7894904283378BIG TEKITOS SEARA0000028.79
7894904284726ISCAS DE FRANGO S0000016.99
7894904284733ISCAS DE FRANGO S0000016.99
7894904285570FILEZINHO SEARA E0000020.25
7894904285587FILE DE PEITO SEA0000020.25
7894904285709COXINHA DA ASA SE0000019.59
7894904285716COXINHA DA ASA SE0000019.79
7894904289950EMPANADO VEG.INCR0000023.38
7894904293148ISCAS DE FRANGO S0000038.28
7894904293155COXINHA DA ASA SE0000044.90
7894904294626FRANGO DE PADARIA0000010.69
7894904295463SALSICHA SEARA DE0000014.15
7894904295579EMPANADO SEARA CH0000004.99
7894904295586EMPANADO SEARA DE0000003.99
7894904296248HAMBURGUER VEG.IN0000003.75
7894904296262CALDO SEARA MANDI0000017.69
7894904296279CALDO SEARA FEIJA0000017.69
7894904296286CALDO VERDE SEARA0000017.69
7894904296293FRICASSE DE FRANG0000019.79
7894904296309ARROZ CARRETEIRO 0000019.99
7894904296316ESCONDIDINHO DE C0000017.99
7894904296323FEIJOADA SEARA 300000019.79
7894904296941CHICKEN CRISPY SE0000016.90
7894904297191CHICKEN CRISPY SE0000036.59
7894904325702PIZZA SEARA FGO C0000013.99
7894904326044PIZZA SEARA CALAB0000013.99
7894904326068PIZZA SEARA MUSS.0000014.69
7894904326259PIZZA SEARA 4 QJO0000013.99
7894904357024PATE SEARA P.PERU0000003.99
7894904500116TEKITOS SEARA 3000000009.99
7894904500383HAMBURGUER SEARA 0000001.49
7894904535996HAMBURGUER SEARA 0000005.75
7894904546213SALSICHA SEARA AI0000007.98
7894904555659SALAME SEARA GOUR0000012.98
7894904571956MARG.DORIANA C/SA0000004.98
7894904571963MARG.DORIANA S/SA0000004.98
7894904573387PATE SEARA PRESUN0000003.99
7894904573394PATE SEARA FGO 100000003.99
7894904573400PATE SEARA FGO C/0000003.99
7894904574230ERVILHA SEARA NAT0000008.79
7894904574780MARG.DORIANA C/SA0000004.49
7894904575350HAMBURGUER SEARA 0000027.59
7894904575367ALMONDEGA SEARA B0000028.89
7894904575374KIBE SEARA 500G  0000026.59
7894904575794FETUCCINE SEARA P0000009.99
7894904575800PENNE AO MOLHO PA0000009.99
7894904575824FETUCCINE SEARA B0000009.99
7894904575848ESCONDIDINHO DE C0000022.69
7894904575862YAKISSOBA SEARA 50000020.69
7894904577897TEKITOS SEARA QJO0000010.89
7894904578207HAMBURGUER SEARA 0000001.99
7894904578566PIZZA SEARA LOMBO0000013.99
7894904578658LASANHA SEARA BOL0000010.69
7894904597833MORTADELA SEARA T0000007.79
7894904597871EMPANADO SEARA T.0000015.25
7894904597888EMPANADO SEARA T.0000014.69
7894904603602MINI HOT DOG CORE0000018.90
7894904603633PIPOQUINHA DE FRA0000017.90
7894904603756BOLINHO DE CARNE 0000020.35
7894904678280HOT HIT SEARA PIC0000007.89
7894904678297HOT HIT SEARA BAR0000007.89
7894904678303HOT HIT SEARA CHE0000007.89
7894904678341HOT HIT SEARA BAC0000007.89
7894904684359CHICKEN CRISPY SE0000011.49
7894904684366CHICKEN CRISPY SE0000011.99
7894904684397CHICKEN CRISPY SE0000011.49
7894904685653COXA DA GRANJA CO0000014.97
7894904685660COXA C/SCOXA DA G0000021.59
7894904687992HAMBURGUER SEARA 0000002.99
7894904691005TEKITOS SEARA 1KG0000027.49
7894904727186LINGUICA SEARA TO0000021.65
7894904727483SOBRECOXA SEARA A0000015.99
7894904727636HAMBURGUER SEARA 0000025.49
7894904769827FILEZINHO SASSAMI0000026.99
7894904769858COXINHA DA ASA SE0000019.99
7894904769889FRANGO DE PADARIA0000013.49
7894904792306FILE DE PEITO SEA0000025.69
7894904798988LASANHA SEARA BOL0000021.99
7894904827220PIZZA SEARA PORTU0000013.99
7894904929658MARG.DORIANA C/SA0000013.39
7894904929955MANDIOCA SEARA NA0000020.59
7894904958610MEIO DA ASA SEARA0000026.79
7894904966172LINGUICA SEARA PA0000020.89
7894904996483HAMBURGUER SEARA 0000025.49
7895000322848UVA VERMELHA C/SE0000013.65
7895140903983MORANGO 250G BDJA0000010.79
7895140904010MORANGO 500G BDJA0000024.39
7896002300148PAO PULLMAN INTEG0000011.59
7896002300377PAO NUTRELLA FTAS0000020.55
7896002301282PAO DE MILHO PULL0000016.18
7896002301497BOLINHO ANA MARIA0000002.49
7896002301633PAO DE FORMA PULL0000019.39
7896002302043PAO PULLMAN INTEG0000012.99
7896002302135BOLINHO ANA MARIA0000005.29
7896002302197PAO ARTESANO 500G0000013.79
7896002302661BOLINHO ANA MARIA0000002.49
7896002303460PAO ARTESANO INTE0000014.99
7896002303781BOLINHO ANA MARIA0000002.49
7896002304832TORTILHA RAP 10 T0000012.58
7896002310239PAO NUTRELLA ABOB0000015.75
7896002310246PAO NUTRELLA CRAN0000014.29
7896002310253PAO NUTRELLA CAST0000013.99
7896002310345PAO ARTESANO NA C0000015.49
7896002311274PAO NUTRELLA AVEI0000014.99
7896002311540BOLINHO ANA MARIA0000002.49
7896002311601PAO P/HAMBURGUER 0000018.59
7896002311625PAO P/HAMBURGUER 0000018.59
7896002311663PAO BISNAGUINHA A0000010.25
7896002311687PAO BISNAGUINHA A0000010.25
7896002311700TORTILHA RAP 10 C0000010.79
7896002311830BOLINHO ANA MARIA0000003.99
7896002311847BOLINHO ANA MARIA0000003.99
7896002311984PAO DE FORMA PULL0000011.85
7896002312066PAO DE MEL ANA MA0000002.95
7896002360234PAO BISNAGUINHA P0000008.19
7896002360326PAO DE FORMA PULL0000009.99
7896002360395PAO PULLMAN INTEG0000012.99
7896002361019BOLO PULLMAN CHOC0000013.85
7896002361033BOLO PULLMAN LJA 0000013.89
7896002362054BOLINHO ANA MARIA0000002.49
7896002362146BOLO PULLMAN GOTA0000013.89
7896002362412BOLINHO ANA MARIA0000003.99
7896002362436BOLINHO ANA MARIA0000003.99
7896002363259BOLINHO ANA MARIA0000003.99
7896002363792TORTILHA RAP 10 T0000010.79
7896002364546TORTILHA RAP 10 F0000010.79
7896002365420TORTILHA RAP 10 I0000010.79
